:020000040804EE
:100000000000082419ED040865ED04086580040863
:100010006B800408718004087780040800000000E9
:100020000000000000000000000000009928040803
:1000300065ED040800000000332904084329040882
:1000400065ED040865ED040865ED040865ED040838
:1000500065ED040865ED040865ED040865ED040828
:1000600065ED040865ED040865ED040865ED040818
:1000700065ED040865ED040865ED040865ED040808
:1000800065ED040865ED040865ED0408ADF80408A5
:10009000BDF80408B9F80408C9F8040865ED0408B7
:1000A00065ED040865ED040865ED040865ED0408D8
:1000B00065ED040865ED040865ED040865ED0408C8
:1000C00065ED040865ED040865ED040865ED0408B8
:1000D00065ED040865ED040865ED040865ED0408A8
:1000E00065ED040865ED04080000000065ED0408F6
:1000F00065ED040865ED040865ED040865ED040888
:1001000065ED0408D9E9040865ED040865ED040807
:1001100065ED040865ED040865ED040865ED040867
:1001200065ED040865ED040865ED040865ED040857
:1001300065ED040865ED040865ED040865ED040847
:1001400065ED040865ED04080000000000000000F3
:1001500065ED040865ED040865ED040865ED040827
:1001600065ED040865ED040865ED040865ED040817
:1001700065ED040865ED040865ED04080000000065
:1001800065ED040865ED040865ED040865ED0408F7
:1001900065ED040865ED040865ED040865ED0408E7
:1001A00065ED040865ED040865ED040865ED0408D7
:1001B00065ED040865ED040865ED040865ED0408C7
:1001C00065ED040865ED040865ED040865ED0408B7
:1001D00065ED040865ED040865ED040865ED0408A7
:1001E00065ED040865ED040865ED040865ED040897
:1001F00065ED040865ED040865ED040865ED040887
:1002000065ED040865ED040865ED040865ED040876
:1002100065ED040865ED040865ED040865ED040866
:1002200065ED040865ED040865ED040865ED040856
:1002300065ED040815ED040865ED040865ED040896
:1002400065ED040865ED040865ED040865ED040836
:1002500065ED040865ED040865ED040865ED040826
:1002600065ED040865ED040865ED040865ED040816
:1002700065ED040865ED040865ED040865ED040806
:1002800065ED040865ED040865ED04080000000054
:1002900065ED040865ED040810B5054C237833B905
:1002A000044B13B10448AFF300800123237010BD49
:1002B00040120024000000009CCB050808B5034B49
:1002C0001BB103490348AFF3008008BD00000000E4
:1002D000441200249CCB0508154B002B08BF134B80
:1002E0009D46A3F5803A00218B460F461348144AD9
:1002F000121A15F0ADF90F4B002B00D098470E4B9A
:10030000002B00D098470020002104000D000D486C
:10031000002802D00C4808F057FD14F097FC20008C
:10032000290004F083FB08F063FF00BF0000080011
:10033000000008240000000089490408401200243D
:10034000A0CB0024C98D0408000000007047000005
:1003500010B5064C4FF41651204600F0E7FD20463C
:100360000349BDE8104002F057B900BF4C1F0024FC
:10037000E4A1050870470B6803604B6843608B6815
:1003800083607047006870470022C26070470C307D
:100390007047CB68C3600BB15B6818477047C36890
:1003A0000BB19B681847704710B504460021FFF752
:1003B000EBFF204610BD10B50446FFF7F0FF2046C6
:1003C00010BD08B5FFF7E3FF0068003018BF01203B
:1003D00008BD000010B50446FFF7F3FF28B940F24E
:1003E00002220649064808F01DF8E068FFF7CAFF38
:1003F00003462046BDE81040184700BF71A205081B
:100400007CA2050808B5FFF7E5FF08BD13B51C4C35
:100410001C4B204640F8043BFFF7C6FF002104F1C7
:10042000400009F097F904F1540009F031F9002374
:100430004FF4805218212046009309F005FA124A21
:100440002046124908F0BEFC00224FF4D06110484B
:1004500006F09EFE0C4A0F490D4802B0BDE8104060
:1004600008F0B0BC0C4809F053F90C4809F09BF9AE
:100470000B48FFF7A0FF11F0EDFFF6E7F8E700BF2C
:10048000B812002484BB050800000024C9980408A1
:100490005C120024BF7104080C130024F81200241D
:1004A000BC120024002070470368C9B21B681847BB
:1004B00049000023C161C0F82C3270470368012154
:1004C0001B6B184710B403689C6B0123A4465DF8AE
:1004D000044B6047D0F82C32B3F5807F1FBF5A1C05
:1004E000C0F82C22C01880F82C1114BF0120002065
:1004F0007047D0F8280170477047C0F83012704735
:10050000C0F834127047D0F82831A3B1D0F82831A0
:100510008BB1D0F82431D0F824210344013293F870
:100520002030D2B2C0F82421D0F82821013AC0F8F6
:100530002821184670474FF0FF307047D0F8283117
:100540002BB1D0F82431184490F8200070474FF0B8
:10055000FF30704738B5036804465B6A9847FC2053
:1005600008F082FEB4F91A20B4F91810054604F018
:10057000E1FD656138BDFC21284608F0A9FE11F0B7
:1005800069FF38B5D0F82C321446054600F5967050
:100590001A441844B2F5807F88BFC3F580742246A0
:1005A00014F058FFD5F82C3220462344C5F82C32DD
:1005B00038BD38B5044640690D4608B104F0B3FCB7
:1005C000206920B12946BDE8384004F00BBE38BD93
:1005D00010B50446406920B10368DB6898470023E2
:1005E000636123699BB1D4F8380209F038F9D4F873
:1005F000380209F055F9D4F8380210B103685B6885
:1006000098479C21206908F063FE0023236110BDF8
:100610001FB50246D0F82C3281F001014069D4693F
:1006200000913BB9012303AA214604F0AEFCC0B2FD
:1006300004B010BD02F59672214604F087FC002834
:1006400014BF02200020F3E770B5B2F5807FC2B07E
:1006500083F00103044628BF4FF4807202AE00937A
:100660004900154613464069324604F08EFCC8B96D
:10067000A84218D0D4F82831B3F5807F10D0D4F830
:100680002031325C234483F82020D4F82031013318
:10069000DBB2C4F82031D4F828310133C4F8283152
:1006A0000130E5E70025284642B070BD30B504466C
:1006B000BDB00025206904F09EFD0328FAD8DFE8CC
:1006C00000F04A021212D4F8343203B19847D4F839
:1006D0002C22002AEED004F59671206904F08FFDDB
:1006E000C4F82C52E6E7C4F82051F022C4F8245193
:1006F0006946C4F82851206904F07FFD0022824237
:100700001DDAD4F82831B3F5807F18D0D4F8283119
:10071000B3F5807F11D0D4F820311DF802102344A6
:1007200083F82010D4F820310133DBB2C4F8203133
:10073000D4F828310133C4F828310132DFE7D4F886
:100740002831002BB6DDD4F83032002BB2D0D4F8EB
:1007500028019847AEE701F0EDFFABE738B500257B
:100760004FF47A7304460183428329464FF4807222
:10077000C0E901530A4BC0E904550360203014F06E
:1007800067FFC4F82051C4F82C522046C4F8245105
:10079000C4F83052C4F82851C4F8345238BD00BFF0
:1007A000A8A2050810B4D0E9003409686210E40773
:1007B0005DF8044B01EB020044BF8A58D358184738
:1007C0000146043008B5FFF7EDFF08BD034A0346B4
:1007D000C26007C983E80700704700BF88A2050808
:1007E00010B586B004460391684606A980E80C005F
:1007F00001E90C00204603A9FFF7E8FF204606B0F8
:1008000010BD37B56C46054684E80C0094E80C0032
:10081000FFF7E6FF284603B030BD00002DE9F041A8
:100820000368054688B00E465B6A98479C2008F02E
:100830001BFDB5F91A20B5F91810044604F0B8FCF0
:10084000710020462C6104F0CFFCBC2008F00CFDA8
:1008500004460646234B04F1400746F8043B304665
:10086000FFF7A2FD0021384608F074FF04F1540898
:10087000404608F00DFF1C4B4FF400621821204643
:100880000093002308F0E0FF184B294604A8C5F8A0
:10089000384202930023039302AB0CCBFFF7B1FF66
:1008A00004A9204609F038F810E0404608F030FF6F
:1008B000384608F078FF3046FFF77DFDBC21204622
:1008C00008F006FD11F0C6FDF2E7F4E704A8FFF713
:1008D00072FD08B0BDE8F0819C21F0E704A8FFF7A5
:1008E0006AFDEFE784BB050894A20508AD0604087D
:1008F00008B5FFF765FF08BD08B5FFF7F9FF08BDAC
:1009000010B5142001F0DAFE0446152001F0D6FEE1
:10091000214602460B48FFF721FF4FF48B727C21E2
:100920000948FFF71BFF092001F0C8FE0446082014
:1009300001F0C4FE214602460448BDE81040FFF71E
:100940000DBF00BF74130024B0150024EC17002461
:10095000064B00221A600122054B1A600222054B49
:100960001A600322044B1A60704700BF301A00243B
:10097000341A0024281A00242C1A002430B5A1F1BE
:100980001004002500F00F02CD7302390009D3B224
:10099000092ACCBF373330330B748C42F2D130BDCF
:1009A0006720704708B5084A0121084B57201A6094
:1009B00001F0E2FE0121572001F028FF044B43F231
:1009C000D2021A6008BD00BF00400058381A002447
:1009D0000040005210B5044609F072F82146FFF7B6
:1009E000CDFF09F073F804F11001FFF7C7FF09F01C
:1009F00073F804F12001FFF7C1FF302010BD0000A3
:100A000008B54DF65972002107480CF06DFDBFF393
:100A10004F8F0649064BCA6802F4E0621343CB606D
:100A2000BFF34F8F00BFFDE7381A002400ED00E050
:100A30000400FA0570B590F8383105461446F3B94C
:100A40000368DB69984704F4706304F00F02B3F5A0
:100A5000407F04F0F0030CBF07210821302B0CBFAE
:100A600002230123012A08D0901E42424241A86974
:100A7000BDE87040006804F079BC0222F7E770BD61
:100A800010B590F8383104462BB9A369186804F002
:100A9000B1FC0028F9D010BD38B590F838510446A3
:100AA000A5B983695BB1186848B10368DB689847EA
:100AB000A36904211D60A06908F00AFCA561002358
:100AC000C4F82831C4F82C31C4F8303138BD13B51E
:100AD00090F8383104466BBBA369186804F05EFCDB
:100AE00040B307F097FDA36901220DF107011868D3
:100AF00003685B699847D4F83031B3F5807F16D02E
:100B0000D4F83031B3F5807F11D0D4F828319DF876
:100B10000720234483F82820D4F828310133DBB29E
:100B2000C4F82831D4F830310133C4F8303107F03B
:100B300087FDD1E702B010BD08B590F838313BB160
:100B4000012001F0E7FD0648BDE8084001F061BA68
:100B500082691AB11368003318BF0123184608BD13
:100B60001C26002470B504460D4601F052FA30B13F
:100B70002368294620461B6CBDE87040184770BDAD
:100B8000A0F5A070EEE7000013B590F838310446E8
:100B90008DF807102BB1C9B20B48FFF7E3FF02B085
:100BA00010BDA369186804F025FC0028F9D0A369DA
:100BB00001220DF10701186803681B69984701308D
:100BC00018BF0120EBE700BF1C2600242DE9F041EF
:100BD00007468846164601F01CFA70B10024A6426A
:100BE0000CD9351B08EB04013846402D28BF4025A1
:100BF0002A462C4400F05CFFF1E704462046BDE89D
:100C0000F081A0F5A070E1E770B590F838310546A5
:100C10000E4614462BB10F48FFF7D8FF0446204676
:100C200070BDAB69186804F0E5FB0028F9D0AB692A
:100C300001211868D0F8883088301B6B9847AB6961
:100C400022463146186803681B699847013008BF7F
:100C50000024E4E71C26002430B50446C3B001F0AC
:100C6000C5F90546D4F85832C3F58073984203DDC0
:100C7000D4F85852C5F580752A4601AB02A9204622
:100C800001F00CF8019902AB00226D1A1D44D4F852
:100C90005832B3F5807F19D08A4217D0D4F8583231
:100CA000B3F5807F10D0D4F85032A85C234483F889
:100CB0005001D4F850320133DBB2C4F85032D4F8CA
:100CC00058320133C4F858320132E0E743B030BD46
:100CD00038B5044600F0D2FB2046FFF7BDFFD4F83C
:100CE0005852204600F0D2FB284638BDA0F5A0702F
:100CF000EEE7000010B590F8383104462BB10648F5
:100D0000FFF7E6FF0446204610BD07F083FCD4F849
:100D1000304107F095FCF6E71C26002438B5044660
:100D200000F0ACFB2046FFF797FFD4F858324BB1E8
:100D3000D4F85432234493F85051204600F0A6FBD7
:100D4000284638BD4FF0FF35F7E7A0F5A070E5E77E
:100D500010B590F8383104462BB10B48FFF7DEFF91
:100D60000446204610BD07F055FCD4F830313BB1A5
:100D7000D4F82C01044494F8284007F061FCF0E713
:100D80004FF0FF34F9E700BF1C26002438B50446B5
:100D900000F074FB2046FFF75FFFD4F85832A3B190
:100DA000D4F85432234493F85051D4F854320133D8
:100DB000DBB2C4F85432D4F85832013BC4F858328C
:100DC000204600F063FB284638BD4FF0FF35F7E7BB
:100DD000A0F5A070DAE7000010B590F838310446AD
:100DE0002BB11148FFF7D2FF0446204610BD07F093
:100DF00011FCD4F830319BB1D4F82C31234493F852
:100E00002800D4F82C310133DBB2C4F82C31D4F8EB
:100E10003031013BC4F83031044607F011FCE4E7FF
:100E20004FF0FF34F9E700BF1C2600242DE9F843FA
:100E300000251F464FF47A7304468946904629469A
:100E40004FF48072C561089EC0E90153184B0360DE
:100E50002023C0E90535283014F0FAFBC4F82851E6
:100E600084F838515FFA89F0C4F82C51C4F8305135
:100E700001F024FC20845FFA88F001F01FFCAF42EF
:100E800060840CDBF8B201F019FCA084002E0ADBB0
:100E9000F0B201F013FCE0842046BDE8F8834FF681
:100EA000FF73A384F2E74FF6FF73E384F4E700BF18
:100EB0000CA3050810B4D0E9003409686210E407F7
:100EC0005DF8044B01EB020044BF8A58D358184721
:100ED0000146043008B5FFF7EDFF08BD034A03469D
:100EE000C26007C983E80700704700BFF8A2050881
:100EF00010B586B004460391684606A980E80C0048
:100F000001E90C00204603A9FFF7E8FF204606B0E0
:100F100010BD37B56C46054684E80C0094E80C001B
:100F2000FFF7E6FF284603B030BD000070B590F82B
:100F3000383186B004460E46002B3BD1856925B971
:100F4000042008F091F9A0610560A369186850BBFE
:100F50008C2008F089F93346B4F922200546B4F90B
:100F6000201004F02FFDA3691D60B4F92420531C48
:100F700006D0A0690321B4F92630006804F032FDE0
:100F8000A3691D68B5B1114B0026214602A8009344
:100F90006B4601960CCBFFF7BCFF324602A92846F0
:100FA00004F096FA03E0314604F0CDF9DDE702A83B
:100FB000FFF701FA06B070BD8C21284608F088F9C9
:100FC00011F048FA02A8FFF7F6F9F9E7CF0A04088A
:100FD00008B5FFF77DFF08BD08B5FFF7F9FF08BDAD
:100FE00037B54FF47A731C4C00254FF4807204F12E
:100FF00028002946E561C4E90153184B23602023EA
:10100000C4E9053514F024FB0121C4F828512A460F
:10101000C4F82C5184F83811C4F830514FF0FF3423
:101020000F4823460094FFF701FF23460094132244
:1010300012210C48FFF7FAFE2346009411221021DA
:101040000948FFF7F3FE23460F220E2100940748BC
:10105000FFF7ECFE03B030BD4C1F00240CA30508C5
:101060005C1A0024981B0024D41C0024101E0024A9
:10107000002070477047704710B5D0F88C452CB1F0
:1010800023682046DB6A9847A468F8E710BD38B5A6
:101090000D46D0F88C4534B1236820462946DB68DC
:1010A0009847A468F7E738BD00487047C8A305080B
:1010B000054B10B50446036005F0E7FE204605F039
:1010C000F5FF204610BD00BF48A3050810B5044633
:1010D000FFF7EEFF4FF4B261204608F0F9F8204622
:1010E00010BDF7B5002305460E46D0F88C45A4B1D7
:1010F000236831460DF1030220461F6901ABB84752
:101100009DF803100346042905D0019A284605F0EE
:10111000CBF903B0F0BDA468E9E7019A9DF803108C
:10112000F4E770B505460E4622B10021BDE87040D7
:1011300004F0C6BFD0F88C455CB12368002231466C
:1011400020465B69984710B101212846EEE7A46864
:10115000F2E72146F9E770B50E460546D0F88C4512
:1011600000213CB12368314620469B699847A4681A
:101170000146F6E72846BDE8704005F095B8F8B599
:1011800005460E461746D0F88C453CB123682046EC
:101190003A463146DB699847A468F6E728460121BC
:1011A000BDE8F84005F0DEB870B5002186B0044611
:1011B00005F0C5FA00234FF48975A188EF26ADF834
:1011C00006302389ADF8045002258DF810301B0A33
:1011D000E2888DF8113040F201238DF80750ADF808
:1011E000123040F203138DF809500125ADF8143088
:1011F00004F10A038DF8086005AE8DF80A501C460C
:101200008DF80C1001AD090A8DF80E20120A8DF828
:101210000B008DF80D108DF80F202A46083303CAF5
:10122000B24243F8080C43F8041C1546F5D1128865
:1012300020461A8006B070BDF8B5002406460D465B
:101240002746304614F0DCFDA04207D9335D05F88F
:10125000143005EB440301345F70F2E7400000F006
:10126000FE00F8BD38B50446D0F88C5535B12B6872
:1012700028465B6A984710B9AD68F7E7284640F200
:10128000023304F24A51A4F84835FFF7D5FF94F829
:101290004835184484F8480504F5A96038BD0000B5
:1012A00040F2023300F20A5110B50446A0F80835A6
:1012B0000548FFF7C1FF94F80835184484F808057D
:1012C00004F5A16010BD00BF38A3050840F2023349
:1012D00010B50446A0F8C83400F2CA40FFF77AFB04
:1012E00094F8C834184484F8C80404F5996010BD13
:1012F0002DE9FF4100231D4A044600F54E788DF884
:101300000A30092590F888350192FA228DF80830C4
:1013100001238DF80C208DF80930C0238DF80B3097
:1013200001AB03CBC4F83803C8F8041088F80820D0
:10133000D4F88C658EB13368002130469B6898479D
:10134000478805F54E7300F10901093FE0183A4658
:101350003D4414F07FF8B668ECE784F83A53404611
:101360002D1284F83B5304B0BDE8F0810902FFFF61
:1013700073B504460D4616460EF008FA4FF4807316
:1013800001462A4620460093334605F04BFE024BA9
:101390002046236002B070BD48A3050810B5D0F800
:1013A0008C350446A3B9C0F88C1594F888350846E6
:1013B0004A790B7194F88835134484F888350B68A2
:1013C0009B6A9847238918442081012010BD134649
:1013D0009A68002AFBD19960E7E71FB5044605F03B
:1013E000A9F90146684604F0C5FB4021684604F0AF
:1013F00033FCD4F88C4534B12368694620461B6A17
:101400009847A468F7E7684604F0BBFB04B010BD3A
:10141000684604F0B6FB11F01DF810B50446FFF75E
:10142000DCFF2046BDE8104005F06BB90F4808B559
:101430000378BFF35B8FDB0711D407F0D3FC70B1E7
:1014400040F2662242F241310948FFF791FF074816
:1014500007F0EAFC074A0849054807F0B3FC0448CE
:1014600008BD024807F0E8FE10F0F4FF88200024D1
:101470008C20002400000024B110040810B5FFF7F0
:10148000D5FF0368BDE810405B6F184710B5FFF744
:10149000CDFF0368BDE810409B6F184710B5FFF7FC
:1014A000C5FF0368BDE81040DB6F184704F0E8BCD7
:1014B00004F0FCBC04F0D4BC704770477047436A2A
:1014C00093F878007047D0F82401704701207047E6
:1014D0000048704734A505082DE9F04F97B0044641
:1014E0000F464B22002103A814F0B2F8D4F824319F
:1014F0002679002B637B06F1010594F80EA014BF3A
:1015000005200020EDB294F80C900193002F40F0DC
:10151000978040F2092301218DF8250042F2054011
:10152000ADF80C304FF481734FF0240C4FF0090EDE
:10153000ADF81030802304274B228DF8133032236E
:101540008DF821104FF010088DF8143008238DF815
:1015500024104FF0030B8DF815300B23ADF8260047
:1015600005208DF8163040F202238DF82A101D3424
:10157000ADF8183002238DF82D108DF82F100621AC
:101580008DF80E208DF817608DF81A308DF81DE05B
:101590008DF81F608DF822308DF823308DF82B00E8
:1015A0008DF82CC08DF831C08DF832308DF83310A5
:1015B0008DF834008DF835C08DF81E708DF82980B7
:1015C0008DF82EB08DF830708DF8361007218DF81B
:1015D000376044F203068DF839108DF8491044F253
:1015E00002018DF83850ADF84C1040F207518DF8DB
:1015F000425040F60225ADF850109DF804108DF8C9
:10160000533040238DF83A008DF84A0020468DF87B
:10161000521003A98DF83BA0ADF83C608DF83F80D7
:101620008DF840E08DF84170ADF844508DF84B9046
:101630008DF8543013F00EFF204617B0BDE8F08F40
:101640000020FAE738B50B4B0546044645F8D03B79
:10165000FFF7ECFE05F019FC284604F097FB04F1B7
:101660007C0004F093FB04F1700004F08FFB204633
:1016700038BD00BFF4A4050810B50446FFF7E2FF2B
:101680004FF49471204607F023FE204610BDFFF76B
:1016900005BF0000034B10B50446036004F032FAA6
:1016A000204610BD10A4050810B50446FFF7F2FF50
:1016B0002821204607F00CFE204610BD034B10B534
:1016C0000446036004F01EFA204610BDE0A305089E
:1016D00010B50446FFF7F2FF3421204607F0F8FD6D
:1016E000204610BD034B10B50446036004F00AFA0F
:1016F000204610BDF8A3050810B50446FFF7F2FF19
:101700003821204607F0E4FD204610BD38B51C4BBB
:101710000D46044640221968C0F80F1099889B793D
:10172000A0F8131002214375284604F08BFA4022DA
:1017300020730221284604F08AFA402260730321B4
:10174000284604F07FFAA073284604F01BFA20B95B
:10175000AF220C490C4806F065FE002304F1850217
:10176000C4E9322304F1D90284F8783084F8843053
:1017700084F8D830C4F81C21C4F8203138BD00BF2B
:101780002CA40508CFA40508DAA405082DE9F34127
:1017900004460E461546FFF781FEF28823799A42E9
:1017A00037D1002D35D17778012F2ED1F378202B2A
:1017B00027D13289072A24D104F10F0804F1160534
:1017C0004046294613F014FED0B1D4F81630C4F8C0
:1017D0000F30638B207CE17BA4F8133001EB0021F8
:1017E000E57C607C237F01EB00410095A07C2568AF
:1017F000637501EB0061237D2046627D6D6BA84718
:101800003D46F378212B08BF0125284602B0BDE8EC
:10181000F0810025F9E710B50446FFF73FFEFFF71A
:1018200005FE217B05F0CEF904F1850304F17C006F
:10183000C4F8C8300023C4F8CC3084F8843004F0F5
:101840005AFA94F884302BB923682046DB6BBDE844
:101850001040184710BD000070B50446FFF71EFE8B
:10186000D4F820512DB140F2DD120F490F4806F097
:10187000D9FD04F1D903C4F81C31FFF7D7FD617B12
:1018800005F0FEF884F8D850C4F8200104F1D00027
:1018900004F031FA94F8D8302BB9236820469B6BBA
:1018A000BDE87040184770BDCFA4050838A40508EE
:1018B00002232DE9F041437100230446054683606D
:1018C0009046144B04F17C0645F8703B284604F022
:1018D00005FA304604F002FA04F1D007384604F065
:1018E000FDF9C4F82481FFF7A1FD2146FFF756FD5D
:1018F0000CE0384604F04AFA304604F047FA28462D
:1019000004F044FA10F0A6FDF6E7F8E72046BDE83B
:10191000F08100BFF4A4050870B504460D46FFF73A
:10192000BDFD84F87850002D3ED194F8843033B159
:10193000FFF77CFD217B04F01DFF84F8845004F147
:10194000850304F17C0600253046C4F8C830C4F88D
:10195000CC5004F0D0F9304604F0C6F928B94FF461
:10196000A2721449144806F05DFD94F8D83033B1E2
:10197000FFF75CFD217B04F0FDFE84F8D85004F1F4
:10198000D90304F1D005C4F81C3100232846C4F85B
:10199000203104F0B0F9284604F0A6F920B94FF43C
:1019A000A77204490548DEE704F17000BDE8704005
:1019B00004F0A1B9CFA4050846A4050857A405085A
:1019C00010B50446FFF76AFD00212046BDE810402F
:1019D000FFF7A2BF38B50D460446FFF75FFD042DA3
:1019E00005D020460021BDE83840FFF795BF38BD3F
:1019F000F8B5164604460D461F46FFF74FFD042373
:101A0000EA88337023799A4225D16978012922D155
:101A1000EA78212A08D0222A0BD0202A4FF0000091
:101A20001BD13070163401E00F34317007203C6058
:101A3000F8BDAB88204613F0010308BF1946FFF735
:101A40006BFFAB8803F00103E366AB8803F002038E
:101A5000A366022333700020EAE703233370E7E72D
:101A600010B58AB00446FFF709FD684604F03AF85D
:101A70000D4B694604F170000093099404F053F98A
:101A80002046FFF703FD094B002168461A6803F062
:101A9000EFFF6846FFF7FEFD0AB010BD6846FFF78E
:101AA000F9FD10F0D7FC00BF10A4050834A4050808
:101AB00070B58EB004460E461546FFF7DFFC01A850
:101AC00004F010F8114B01A904F17C0001930023EC
:101AD0000C958DF83430CDE90A4604F024F92046FF
:101AE000FFF7D4FC0A4B002101A81A6803F0C0FFDD
:101AF00004E001A8FFF7E2FD10F0ACFC9DF83440D3
:101B000001A8FFF7DBFD20460EB070BDE0A305087D
:101B100034A4050810B50446FFF7C0FC94F88430DF
:101B20007BB9D4F8CC3063B1FFF780FCD4F8CC306B
:101B300004F18502217B04F0E3FF10B1012384F856
:101B4000843010BD2DE9F8431E4604468946904670
:101B50009DF82070FFF792FC0023336094F87830F2
:101B6000E3B194F88430CBB9D4F8CC50C5F140053A
:101B7000454528BF4546B8F1000F05D02A464946DD
:101B8000D4F8C80013F066FCD4F8CC302B44C4F869
:101B9000CC30356017B12046FFF7BCFF2046BDE8CA
:101BA000F843FFF773BCF0B50446406A85B00126E0
:101BB00090F878502DB984F830503546284605B055
:101BC000F0BD04AB0027D4E90A1243F8047D009667
:101BD000FFF7B8FF0399E36AA26A5B1A0A44E3625B
:101BE000A26213B984F83060E8E7606A3D46FFF707
:101BF00091FFE3E72DE9F0431C4691B00546894685
:101C00009046FFF73BFC002C4FF0000602A806BFF1
:101C100001AC01270027266003F064FF134B02A9E3
:101C200005F1D00002938DF83C708DF83D60CDE950
:101C30000B59CDE90D8404F076F82846FFF726FC11
:101C40000B4B314602A81A6803F012FF04E002A809
:101C5000FFF748FD10F0FEFB9DF83D4002A8FFF79E
:101C600041FD204611B0BDE8F08300BFF8A3050890
:101C700034A4050810B5D0F8203104466BB990F8AB
:101C8000D83053B9FFF7D2FB402304F1D902617B6E
:101C900004F098FE012384F8D83010BD70B50446D6
:101CA0001E4600230846336094F87830EBB194F870
:101CB000D830D3B9D4F82051D4F81C11954228BF9C
:101CC00015462A4613F0C6FB3560D4F81C31D4F80B
:101CD00020212B44551BC4F81C31C4F8205125B9D0
:101CE0002046BDE87040FFF7C5BF70BD37B504465C
:101CF000406A90F878502DB984F83550012528466F
:101D000003B030BD02AB002243F8042DD4E90A121F
:101D1000FFF7C4FF0199A26A0A44A262226B13680A
:101D20000B4413600199E36A5B1A94F83410E36280
:101D300009B9126802B91BB9012384F83530DEE70E
:101D4000606A0025FFF796FFD9E710B50446FEF755
:101D50002BFB204610BD10B4D0E900340968621096
:101D6000E4075DF8044B01EB020044BF8A58D358E6
:101D700018470146043008B5FFF7EDFF08BD000025
:101D8000034A0346C26007C983E80700704700BFE3
:101D900020A4050810B586B004460391684606A93C
:101DA00080E80C0001E90C00204603A9FFF7E8FFDA
:101DB000204606B010BD37B56C46054684E80C00D9
:101DC00094E80C00FFF7E6FF284603B030BD0000A2
:101DD000F0B58BB00546FFF761FB06ACFFF726FBBD
:101DE000AF7B064600212046FFF7AFFF0094032398
:101DF00040223946304605F0ABF82046FEF7DBFAC4
:101E0000FFF714FB214B06462F7B02930023294644
:101E10002046039302AB0CCBFFF7CDFF00940223C7
:101E200040223946304605F093F82046FEF7C3FAC3
:101E3000FFF7FCFA164B06466F7B049300232946F6
:101E40002046059304AB0CCBFFF7B5FF00940223AB
:101E500040223946304605F07BF806E02046FEF782
:101E6000AAFA10F0F7FAF9E7F8E72046FEF7A3FA26
:101E7000FFF7DCFA4023D5F81C21697B04F0A2FDB2
:101E8000012085F8D8000BB0F0BD00BF171804087A
:101E90005918040808B5FFF76CFF08BD08B5FFF72F
:101EA000F9FF08BD6FF01500704700290CBF6FF0F7
:101EB000180000207047012070476FF01500704730
:101EC0006FF01500704711207047704770477047DA
:101ED00003689B6C1847A0F5A070F9E7704770473E
:101EE0007047704710B50446012000F013FC94F8C9
:101EF000780010BDA0F5A070F4E7000038B54FF0F1
:101F0000FF320123FF210B4807F080FB0A4D00F050
:101F1000EFFB044695F878301BB1012000F0FAFB86
:101F2000F8E700F0E5FB001BC728F6D9BDE838400C
:101F3000FEF766BDD42800241C26002407B502AB9A
:101F4000012243F8041D1946FFF7B2FD18B10198AC
:101F500003B05DF804FB4FF0FF30F9E7A0F5947093
:101F6000FFF7ECBF07B5002302A9012201F8013DEC
:101F7000FFF740FE20B19DF8070003B05DF804FBB9
:101F80004FF0FF30F9E7A0F59470FFF7EBBF2DE9B4
:101F9000F8430446884617461E46089DFFF77EFA1A
:101FA000D4F87092B9F1000F04D02B46324639466E
:101FB0004046C847C4F86082C4F86472C4F86862D6
:101FC000C4F86C52BDE8F883B0F5966F03D10121D7
:101FD000014807F0FDBA7047D42800240C30704740
:101FE00008B5FFF7FBFF0023036008BD38B50546C1
:101FF000FFF744FA95F8D8304BB9D5F82041402C7A
:1020000028BF40242846FFF741FA204638BD002467
:10201000F8E790F878007047114B03F1780270B53B
:1020200003600446C0F8282100F51D7603F1D802AC
:1020300000F52D75E833C0F82C21C0F84031AE42D0
:1020400004D0103D2846FEF7B6F9F8E704F5947081
:1020500005F06AFE2046FFF7F5FA204670BD00BF86
:1020600074A50508A0F59470FFF7D6BFA0F596708B
:10207000FFF7D2BF10B50446FFF7CEFF4FF42E7125
:10208000204607F025F9204610BDA0F59670FFF711
:10209000F1BFA0F59470FFF7EDBF00002DE9F74305
:1020A00004461E46884615460DF070FBBDF82C30E0
:1020B00004F59477014601932A46BDF8283020465E
:1020C00000933346FFF7F4FB0021384605F002FE8B
:1020D0004FF47A73002504F51D7904F5A870C4F84F
:1020E00048312946204B4E46C4F8445103F178024A
:1020F0002360C4F8282103F1D802E833C4F82C2166
:102100004FF48072C4F8403113F0A2FAC4F8505270
:10211000C4F85452C4F8585204F52D7530461036A0
:10212000FEF742F9B542F9D10023C4F8B432C4F83D
:102130007032B8F1000F13D02046FFF791FC0FE08A
:102140004D4504D0103D2846FEF735F9F8E73846EE
:1021500005F0EAFD2046FFF775FA10F07BF9F9E784
:10216000204603B0BDE8F08374A50508884238B561
:10217000044606D00D46FEF712F920462946FEF722
:1021800008F9204638BDF8B506460025FFF786F960
:1021900006F51D74D6F8B432AB420AD9204627465C
:1021A000FEF70FF9103420B138460135FEF712F969
:1021B000F0E7F8BD044BC36003460A6843F8042BFC
:1021C000002242605A60704758A5050813B50446BE
:1021D000019121B9FFF704FF204602B010BD01A90B
:1021E000FFF7E8FFF8E710B4D0E90034096862109F
:1021F000E4075DF8044B01EB020044BF8A58D35852
:1022000018470146043008B5FFF7EDFF08BD000090
:10221000034A0346C26007C983E80700704700BF4E
:102220004CA5050810B586B004460391684606A97A
:1022300080E80C0001E90C00204603A9FFF7E8FF45
:10224000204606B010BD37B56C46054684E80C0044
:1022500094E80C00FFF7E6FF284603B030BD00000D
:102260002DE9F04188B00446FFF708F9384B2046C5
:10227000C4F87032FFF70AF9364B04A821460293DE
:102280000023039302AB0CCBFFF7DDFF2046FFF7E3
:10229000F5F8D4F8B402032803D92046FFF7F6F87E
:1022A0000AE0431C04EB001004A9C4F8B43200F5A2
:1022B0001D70FFF75BFFF0E704A8FEF77CF8BC2079
:1022C00006F0D2FF05460646234B05F1400746F8C7
:1022D000043B3046FEF768F80021384607F03AFA2A
:1022E00005F15408404607F0D3F91C4B4FF48072B7
:1022F000182128460093002307F0A6FA184904A8DD
:10230000C4F85C52FFF762FF04A9284607F004FBFB
:1023100010E0404607F0FCF9384607F044FA304632
:10232000FEF749F8BC21284606F0D2FF10F092F8DB
:10233000F2E7F4E704A8FEF73EF82046FEF78CFC2F
:1023400008B0BDE8F08104A8FEF735F8EEE7FAE73B
:10235000C91F0408590C040884BB050864A50508B6
:10236000FD1E0408A0F5A070FFF77ABF03681847A8
:1023700008B5FFF7FBFF08BD08B5FFF742FF08BD32
:1023800008B5FFF7F9FF08BD37B50F4C0F4D2046D4
:1023900007F00EF92A460E49204606F013FD42F2D8
:1023A000120301220B4CCDE9003200224FF4F85306
:1023B00020461146FFF772FE2A460749204603B021
:1023C000BDE8304006F0FEBCD42800240000002404
:1023D000D79504081C2600241920040808B511F01C
:1023E000E1FC2DE9F04F027D85B005460E46012A3D
:1023F00040F08E8000214FF0FF3B04460B465F46C5
:1024000094F804C048B2BCF1000F73D194F805C031
:10241000BCF1000F6ED1B7F1FF3F17BF01330123AD
:1024200038465BB2934201DD1A46834601310234DD
:1024300008295DD1002402EB0B03A1460293CB4592
:1024400002DC029B4B4558DC95F8058095F804A00A
:102450004FEA281708F00F080AF00F035FEA2A1A5C
:10246000FAB201926FD05FFA8AF1BAF1090F3046E1
:102470000393D4BF3031573100F0C5F8039B0444B7
:10248000092B3046039394BF03F1300103F1570148
:1024900000F0B9F80444BAF1000F02D1039B03B96C
:1024A0004FB1092F019F3046D4BF30375737F9B2AB
:1024B00000F0A9F80444B8F1090F304694BF08F1C0
:1024C000300108F1570100F09EF8B9F1070F0444FC
:1024D00004D03A21304600F096F8044409F101098D
:1024E0000235B9F1080FAAD1204605B0BDE8F08F3A
:1024F000074685E74FF0FF3098E7CB45EED1BBF1BB
:10250000000FE6D13A21304600F07DF80444E0E7C0
:1025100000F1100700F11309002417F8011B0A222B
:10252000304600F0ADF880462E21304600F06BF8C2
:10253000B94540440444F0D10A22E97C304600F019
:102540009FF80444D0E7002B9AD1A9E7054B10224D
:1025500010B50446036001750021043013F078F8CB
:10256000204610BD90A6050870B5074D8374056020
:1025700000259DF81030057545608560C5600174C3
:102580004274C37470BD00BF90A6050807B5012151
:102590000648FFF7DBFF002305481A46194600935B
:1025A000FFF7E2FF03B05DF804FB00BFE82800245A
:1025B000002900242DE9F04106460D4601EB0208F2
:1025C0000C464445A4EB050707D03368304614F8A1
:1025D000011B1B6898470028F3D13846BDE8F081FD
:1025E00070B5044608460D4613F00AFC23680246FF
:1025F000294620465B68BDE87040184709B1FFF7DF
:10260000EFBF0846704703681B6818470149FFF78A
:10261000E7BF00BF32C7050838B50546FFF7EEFF34
:1026200004462846FFF7F2FF204438BD70B58AB053
:102630000D460023012A98BF0A220AA901F8043D89
:10264000B5FBF2F402FB14562546F3B2092E94BFF3
:1026500030333733DBB201F8013D002CF0D1FFF706
:10266000CDFF0AB070BD10B42AB90368C9B25DF8D5
:10267000044B1B681847D2B25DF8044BFFF7D6BF76
:10268000FFF7F1BF10B500F047F80A4CFEF78AF9E2
:10269000FEF7CCFEFEF7C1FE4FF4E1310648FFF72E
:1026A000DFFDFDF755FEFDF751FE002CFBD0AFF32B
:1026B0000080F8E7000000001C26002410B5044646
:1026C000FEF76EF984423BBF2401024B4FF0FF300E
:1026D000185F10BD0400002410B5044603F01EF876
:1026E000204610BD10B5044603F018F8204610BD72
:1026F00007B50749684603F04EF84FF47A72002395
:10270000DDE9000110F0F8F903B05DF804FB00BF4B
:102710001829002407F04EB808B5044803F008F85B
:102720000348BDE8084003F003B800BF3029002487
:102730001829002407F04EB838B50A4C0A4D204637
:1027400003F066F82046094C2A46094906F03AFB90
:10275000204603F068F82A4620460649BDE838407E
:1027600006F030BB30290024000000241829002482
:10277000E5260408D92604082DE9F04104460E4652
:10278000FEF70EF984423CD21F4D2701EA19D068AA
:1027900010B11C2106F09CFD2046FFF78FFF8046FC
:1027A0001C2006F061FD044600211C2212F050FF9F
:1027B0004146204604F00BFEEB19012EDC6010D0E0
:1027C00006D3022E12D0204602F065FB022103E060
:1027D000204602F060FB00212046BDE8F04102F0F7
:1027E00067BB2046BDE8F04102F048BB204602F03E
:1027F00052FB0121F0E71C21204606F069FD0FF095
:1028000029FEBDE8F08100BF040000242DE9F3415A
:1028100006460F46FEF7C4F886422AD21B4D4FEA01
:10282000061805EB0802D468ACB93046FFF746FF3E
:1028300006461C2006F018FD04461C22002112F05A
:1028400007FF0097002301223146204604F0DBFDFC
:1028500005EB0803DC600E4B0E491A46D3F89400D2
:102860008842FBD123683FB1A1680B604FF44073ED
:10287000536102B0BDE8F081E1681B04F5E71C215B
:10288000204606F025FD0FF0E5FD00BF0400002402
:1028900000640258000300801EF0040F0CBFEFF329
:1028A0000880EFF30980816911F8021C002932D1F8
:1028B00001B590E80F10E047BDE800508CE8030038
:1028C000244B93E80600914208BF70471A6041B953
:1028D0001EF0100F10D1204B186820F00100186076
:1028E0000AE02CE9F00F1EF0100F08BF2CED108A43
:1028F00081F822E0C1F838C0906B92F8221061F0A4
:10290000FF0E1EF0100F08BFB0EC108AB0E8F00FF9
:1029100080F309887047114A13689942FAD801B5C3
:1029200052F821C00FC8E047BDE80050CCF80000C5
:10293000704701B501F04AFBBDE80140EFF3098C97
:10294000BEE701B501F006FBBDE80140EFF3098CDD
:10295000B6E700008806002434EF00E05CA7050815
:10296000014608B530B96FF0030000F0EEF96FF0E2
:10297000030008BD132001F0E3FE30B94FF0FF3033
:1029800000F0E3F94FF0FF30F3E70020F1E700003B
:1029900008B5EFF305832BB9EFF3108313B9EFF309
:1029A000118333B16FF0050000F0CFF96FF005002F
:1029B00008BDDFF808C000DFFAE700BF612904089E
:1029C000EFF310832BB9EFF31180003818BF01200B
:1029D000704701207047000038B50546A0B18468F3
:1029E00002686CB114F0030302D1C1680F2926D824
:1029F00000246FF00801002002F00AF9204638BDDB
:102A0000C368002BF4D11546104BD3F8900078B171
:102A100000F015FC0446A0B10123F322A3700023AB
:102A2000656022700A4AC4E90233084B5A66E5E73A
:102A300001221021D3F8800000F088FBEAE7154658
:102A4000EBE76FF0040102F0E3F8D7E77406002427
:102A5000BD2A0408930710B502F0010422D400F146
:102A60000C0384B153E8000F00EA01028A4203D04C
:102A7000BFF32F8F002005E020EA010243E8002485
:102A800004B1EFE710BD53E8000F084203D1BFF3D4
:102A90002F8F002005E020EA010243E8002404B162
:102AA000F1E7EFE7C06801EA00031CB1994218BFE3
:102AB0000020E7E7002B08BF0020E3E7F8B5054654
:102AC000846804B9F8BD94F823202846616AA76891
:102AD000FFF7C0FF064638B1204601F0F0FB0022A8
:102AE0003146204601F084FD3C46EAE7F8B50D4644
:102AF00017461E46044620B10378F32B01D1002966
:102B000007DA20466FF0030102F082F86FF003004D
:102B1000F8BDFFF79FFF0028FAD186B13146432068
:102B200001F00EFE40B1074B20465E69314601F0D0
:102B3000ABFB756286F823706FF00100E8E76FF079
:102B40000200E5E77406002470B5054610B103786D
:102B5000F32B07D028466FF0030102F059F86FF00D
:102B6000030070BD836863B1284601F09FFB00221B
:102B70006FF0020101F03CFDA8680028F4D101F0DB
:102B80001DFCAB78002613F001032E700FD0094B0B
:102B90002946D3F8904024B1204600F06AFB304625
:102BA000DFE7D3F8800000F006FB2046D9E718469F
:102BB000D7E700BF740600242DE9F041064620B196
:102BC0000378F32B01D1002909DA6FF003056FF0C8
:102BD0000301304602F01CF82846BDE8F08100F100
:102BE0000C0353E8002F42EA010543E8005000B10E
:102BF000F7E7B4681CB9204601F0E0FBECE794F875
:102C000023203046616AD4F80880FFF723FF074687
:102C100078B194F823309B0756BF656A054620EAD1
:102C20000505204601F04BFB00223946204601F005
:102C3000DFFC4446DEE70000024608B5EFF30583FB
:102C400033B100206FF0050101F0E2FF002008BD64
:102C5000FFF7B6FE0028F4D11046DFF808C000DF09
:102C6000F5E700BFD9290408024638B5EFF305831C
:102C70004BB192B96FF003046FF00301104601F0FD
:102C8000C7FF204638BDFFF79BFE0028F1D1104654
:102C9000DFF82CC000DF0446F3E71378F32BE9D10B
:102CA0000029E7DB02F10C0353E8000F40EA0104BE
:102CB00043E8004505B1F7E7104601F0CFF9E0E73A
:102CC000B92B040838B504461D46EFF3058343B11C
:102CD0008CB920466FF0030101F09AFF6FF00300FA
:102CE00038BDFFF76DFE0028F2D120462B46DFF8F5
:102CF00024C000DFF4E72378F32BEAD1002DE8D1DC
:102D00000029E6DB2046FFF7A5FE002808BF6FF08C
:102D10000200E5E7ED2A0408024608B5EFF3058353
:102D20003BB110466FF0050101F072FF6FF0050036
:102D300008BDFFF745FE0028F3D11046DFF804C0B8
:102D400000DFF5E7492B040870477047EFF3108365
:102D50002BB9EFF31180003818BF01207047012014
:102D600070470000064BDA6A3AB1D0695B6C1BB160
:102D70001B69984228BF184670474FF0FF30F5E7AF
:102D800074060024014BD868704700BF7406002405
:102D900070B5464C237A012B00F0858033B14FF09B
:102DA000FF3001F029FF4FF0FF3070BD404DEB6860
:102DB000E3652B8AD5E90B61A4F85430AB68304643
:102DC000236400F0ABF908B1C4F88060D5E905616F
:102DD000304600F0A3F908B9D4F880606667D5E9F9
:102DE0000761304600F09AF908B9D4F88060A66708
:102DF000D5E90961304600F091F908B9D4F880604E
:102E0000E6676E6B3EB131683046D6E9022300F0CA
:102E1000F5F9C4F88460AE6B3EB131683046D6E94E
:102E2000022300F0EBF9C4F88860EE6B3EB1316824
:102E30003046D6E9022300F0E1F9C4F88C602E6C2C
:102E40003EB131683046D6E9022300F0D7F9C4F824
:102E500090606E6C3EB131683046D6E9022300F0D6
:102E6000CDF9C4F89460AE6C3EB131683046D6E915
:102E7000022300F0C3F9C4F89860EE6C3EB13168EB
:102E80003046D6E9022300F0B9F9C4F89C602D6DF4
:102E90003DB129682846D5E9022300F0AFF9C4F80E
:102EA000A0500123237200207FE700BF7406002496
:102EB000ECA6050870B5254D2B7A012B07D06FF0D5
:102EC00006004FF0FF3401F097FE204670BD01F080
:102ED0006BFC10B94FF0FF30F3E71D4AFF231D4E86
:102EE00082F8223092F82230D26863F0FF031A4948
:102EF000C2F302227068DB4314BFB3FA83F32023CA
:102F0000C3F12003934298BF531CFE2202FA03F33D
:102F10000F4ADBB2D37701F0CBFE04460028D9D1AB
:102F200001F01EFF286101F007FF0C4801F0BEF917
:102F300001F03CFA3368DB074CBF0223032383F321
:102F40001488BFF36F8F02232B72BEE77406002430
:102F500000ED00E0ECA605084329040890060024D3
:102F600010B50F4C237A022B13D101F0EDFE012393
:102F70006372BFF34F8F0B4A5168C90003D54FF0FE
:102F800000615160A37204232372BDE81040FFF773
:102F9000E9BE6FF0070001F02FFE002010BD00BF5A
:102FA0007406002400ED00E038B51E4C0546237A77
:102FB000042B35D1FFF7D6FEE26AA842034694BF40
:102FC00000F1FF332B4612B1D069C01AD061626C98
:102FD00012B11069C01A1061E06803440544E3604F
:102FE000E368AB4213D102230020237201F0E6F91B
:102FF00000236372BFF34F8FA27A22B1A3724FF006
:103000008052094B5A60BDE8384001F095BE01334B
:10301000E36001F091F9236D002BE1D09847DFE7E1
:1030200038BD00BF7406002400ED00E0704738B5DD
:1030300004460D46FFF788FE29462046BDE8384085
:1030400001F09CBD08B5FFF7F1FFEFF3058333B145
:103050006FF0050001F0D0FD6FF0050008BDFFF72F
:1030600075FE0028F4D1DFF808C000DFF6E700BFE6
:10307000912D040808B5EFF3058333B16FF0050017
:1030800001F0BAFD6FF0050008BDFFF75FFE0028F4
:10309000F4D1DFF808C000DFF6E700BFB52E040862
:1030A00008B5EFF305832BB16FF0050001F0A4FD27
:1030B000002008BDFFF74AFE0028F5D1DFF804C064
:1030C00000DFF6E7612F0408024608B5EFF3058339
:1030D0002BB16FF00500BDE8084001F08DBDFFF792
:1030E00035FE0028F5D11046DFF804C000DF08BD2A
:1030F000A92F040808B5EFF3058313B1054BD86871
:1031000008BDFFF723FE0028F8D1DFF80CC000DF70
:10311000F6E700BF74060024852D040810B598B1A9
:1031200040EA010313F007030ED117290AD9016001
:10313000083910220C18426084600B5081684A6084
:10314000C3600123184610BD0023FBE7F0B580B330
:1031500099B132F003032CD10F3100F1080521F0B1
:1031600007072B462D685C68E91A24F00304091B45
:103170008F4204D929680029F3D10846F0BD46687A
:103180003A4304683E444660204450F8041C083822
:103190008E4288BF4660586818B903F108015A602A
:1031A000EBE720F0030019181D504A601960083140
:1031B000E3E70021E1E730B590B1D9B1A1F108050D
:1031C00000F108040022AC420BD151F8043C23F07A
:1031D000030443681B1B436042B941F8042C0120DF
:1031E00030BD236822463BB11C46ECE751F8083C51
:1031F0001360F4E70846F3E71846F1E730B5C0B1CD
:1032000089B1C2B1CBB100240160C3604361C0E9A0
:10321000014202FB01F41D1905611846013904D170
:10322000A21A99500121084630BD8518056028462C
:10323000F4E70146F7E71146F5E71946F3E70346D9
:1032400010B5A8B100F1140252E8000F10B9BFF395
:103250002F8F04E0016842E8001404B1F4E738B1AC
:10326000043353E8002F511C43E8001404B1F8E77D
:1032700010BD30B5F0B1C3688B421BD803698B42D7
:1032800018D900F114031A680A60BFF35F8F53E87E
:10329000002F0C689442F6D143E8001505B1F2E71F
:1032A000043050E8003F5A1E40E8002101B1F8E721
:1032B000002030BD6FF00300FBE7EFF310832BB964
:1032C000EFF31180003818BF0120704701207047CC
:1032D000036B30B5E3B1CD780024DA78AA420FD37E
:1032E0001A46C1E901248AB19160A4B16160283015
:1032F00050E8003F5A1C40E8002101B1F8E730BD1A
:103300005A681C46002AECD01346E6E7C162ECE797
:10331000C1E90133C1620163E9E7D1E9013223B1B7
:103320009A608A681AB153607047C262F9E7036312
:103330007047F8B5877804468FB3C5680027014603
:1033400005F10C062846FFF7E8FF27703046FFF727
:1033500090FFAB68002B48D03046FFF770FF044663
:10336000002842D0284600F0A1FF06463A463946DA
:1033700001F03EF9304601F00FF86A6A06468168AE
:1033800004F10C0012F066F8F923A7702370F368BB
:10339000E37021462846BDE8F840FFF799BF8568ED
:1033A000AB68002BF5D05B78832BF2D1284600F078
:1033B0007DFF06463A46394601F01AF9304600F0DC
:1033C000EBFF06466A6A04F10C01806812F042F8CD
:1033D000F3680BB1E2781A700023214605F10C0066
:1033E0002370BDE8F840FFF744BFF8BD2DE9F04178
:1033F0000C4617469846054618B10378FA2B00D1BB
:1034000041B928466FF0030101F018FC6FF003008A
:10341000BDE8F0818368C3B15B78832B15D100F0E0
:1034200045FF06460122002101F0E2F8304600F097
:10343000B3FF06466A6A2146806812F00BF8F0680E
:103440000028E5D007700020E2E705F10C00FFF747
:10345000F6FE064670B121466A6A0C30002411F06F
:10346000F9FFF923314628463370B470F770FFF73F
:103470002FFFE8E7B8F1000F10D04146932001F08C
:103480005FF940B1074B2846596900F0FDFEEFF3A4
:103490000983C3E902476FF00100B9E76FF002004A
:1034A000B6E700BF740600242DE9F84F88460746AA
:1034B00038B131B1B0FA80F3B1FA81F10B441F2B6E
:1034C00006DC6FF003010020002401F0B7FB70E080
:1034D00008F1030626F003060C3606FB00F9F2B1EC
:1034E00094683CB1A30702D1D368332B05D86FF0A1
:1034F0000801E8E7D368002BF9D1D2F800A0D2E99F
:1035000004533DB115F0030B01D1994554D96FF027
:103510000901D8E7002BFAD11CB19B460CE092467A
:103520001546274BD3F8A000D8B1FFF788FE044614
:10353000A0B14FF0010B35BB214B00224946D86F9B
:10354000FFF704FE0546C0B9BBF1000F06D01C4BC7
:103550002146D3F8A00058B1FFF78BFE6FF00401AD
:10356000B1E701223421D3F88000FFF7EFFDDEE759
:10357000D3F88000FFF71FFEF0E74BF0020B4A463E
:10358000002112F065F8FA233246394604F10C00A6
:103590002370002384F802B0A360C4F804A0C4E937
:1035A0000983C4E90B332B46FFF728FE044B054A79
:1035B0001A672046BDE8F88F002CE4D1B1E700BFC0
:1035C000740600243333040800F1280310B553E8CF
:1035D000002F12B9BFF32F8F04E0511E43E80014EF
:1035E00004B1F4E70AB9002010BDC06A0123002825
:1035F000F9D0821CD2E84F1FC2E8443F04B1F9E77A
:1036000011F0FF0FF0D08068F1E700002DE9F041E4
:103610000F4615469846044618B10378FA2B00D198
:1036200041B920466FF0030101F008FB6FF0030081
:10363000BDE8F081FFF7C8FF064600283AD00146F2
:103640002046FFF76AFE626A06F10C01384611F067
:1036500001FF0DB1F3782B70002504F10C07314602
:1036600038463570FFF705FEA3680BB90020DFE789
:103670003846FFF7E4FD06460028F7D0204600F064
:1036800015FE07462946012200F0B2FF384600F039
:1036900083FE626A0746816806F10C0011F0DAFECB
:1036A000F923B570314633702046FB68F370FFF79D
:1036B0000FFEDBE7B8F1000F10D04146832001F088
:1036C0003FF840B1074B2046596900F0DDFDEFF3AC
:1036D0000983C3E902756FF00100A9E76FF00200EA
:1036E000A6E700BF7406002408B5064B08219A6EB1
:1036F000D86EFFF7D9FE044BD864B0FA80F04009C9
:10370000404208BDECA60508740600242DE9F041EE
:1037100006460F4690461C46EFF305834BB196B91B
:1037200030466FF0030101F089FA6FF00300BDE845
:10373000F081FFF7C2FD0028F1D130462346DFF8C3
:1037400048C000DFF3E73378FA2BE9D1002FE7D048
:10375000002CE5D106F10C00FFF771FD054680B1A4
:10376000726A39460C3011F075FEF9232846AC70A8
:103770002B7085F80380C5E9017600F06FFC2046C8
:10378000D5E76FF00200D2E7ED330408F8B5044640
:103790000F4616461D46EFF3058343B18CB920460C
:1037A0006FF0030101F04AFA6FF00300F8BDFFF774
:1037B00084FD0028F2D120462B46DFF844C000DF0C
:1037C000F4E72378FA2BEAD1002FE8D0002DE6D1D8
:1037D0002046FFF7F9FE054670B100F10C01626A60
:1037E000384611F037FE0EB1EB7833702846EC60A6
:1037F00000F034FC0020D9E76FF00200D6E700BFEC
:103800000D360408EFF310832BB9EFF31180003865
:1038100018BF0120704701207047000070B5A8B3A1
:103820008468D0E900566CB114F0030302D1C26879
:103830001B2A1AD800246FF00801002001F0EEF9CD
:10384000204670BDC368002BF4D1124BD3F894000E
:1038500030B901221C21D3F88000FFF777FC01E08A
:10386000FFF7EDFC044660B10123F522A3700023AD
:10387000E670227065602376C4E90233C4E904333C
:10388000DEE76FF0040101F0C9F9D9E70546064605
:10389000DBE700BF74060024284B70B55D69044661
:1038A0000E4635B96FF0070101F0B8F94FF0FF305F
:1038B00070BD10B10378F52B07D020466FF00301DF
:1038C00001F0ACF96FF00300F2E7037E53B9C0E9F1
:1038D0000353EB6A436103B118610123EC620020DA
:1038E0002376E5E7C278D1070DD5C168A9420AD190
:1038F000FF2B06D16FF00F0101F090F96FF002007D
:10390000D6E70133EBE7002EF8D093070AD5E0683D
:1039100095F9203090F920209A4203DA80F820307F
:1039200000F0D6FC3146532000F00AFF18B12946BA
:10393000204600F0A9FC6FF00100B9E774060024EE
:103940002E4B5A6970B5044632B96FF0070101F089
:1039500065F94FF0FF3070BD10B10378F52B07D03B
:1039600020466FF0030101F059F96FF00300F2E710
:10397000037E33B96FF00E0101F050F96FF00200D1
:10398000E9E7C168914202D06FF00D01F4E7013B15
:10399000DBB2037613BB43690BB10169196121697D
:1039A000F1B14B6192F92130D56ADDB982F820304E
:1039B000A36883B1204600F079FC06462A462946D2
:1039C00000F016FEF36AC4E90365636103B11C618C
:1039D0000123F4622376002000F0F0FC0020BAE717
:1039E000D362DFE7E978890706D5A96821B191F9A3
:1039F00020108B42B8BF0B466D69D6E774060024D1
:103A000070B5044610B10378F52B07D020466FF04F
:103A1000030101F003F96FF0030070BD037EBBB139
:103A20006369C0680BB122691A61226902B35361EC
:103A300090F92120C36AEBB990F92030934203D06A
:103A400080F8202000F044FCA068F8B900F0B6FC33
:103A5000A078002610F001002670DED0134B21461E
:103A6000D3F89450DDB12846FFF703FC3046D4E785
:103A7000C362DDE7D978890706D5996821B191F944
:103A800020108A42B8BF0A465B69D4E7204600F09E
:103A90000DFC00226FF0020100F0AAFDD4E7D3F87C
:103AA0008000FFF788FB2846B7E700BF74060024B4
:103AB0002DE9F0410446002601270CB9BDE8F0814C
:103AC000E378D4F814801B0712D5A36826767BB15F
:103AD000204600F0EBFB00220546114600F088FD71
:103AE000EB6AC4E90356636103B11C61EC6227769B
:103AF0004446E2E710B4C3789B071DD5C06890F92F
:103B00002120C36ADC78A40709D59C688C4208BFD1
:103B10008C6824B194F92040A242B8BF22465B6968
:103B2000002BEFD190F92030934205D080F820206F
:103B30005DF8044B00F0CCBB5DF8044B704700000F
:103B4000024608B5EFF3058333B100206FF005019D
:103B500001F064F8002008BDFFF754FE0028F4D1FE
:103B60001046DFF808C000DFF5E700BF1D38040885
:103B7000024608B5EFF305833BB110466FF005012F
:103B800001F04CF86FF0050008BDFFF73BFE002880
:103B9000F3D11046DFF804C000DFF5E799380408D8
:103BA000024608B5EFF305833BB110466FF00501FF
:103BB00001F034F86FF0050008BDFFF723FE002880
:103BC000F3D11046DFF804C000DFF5E741390408FF
:103BD000024608B5EFF305833BB110466FF00501CF
:103BE00001F01CF86FF0050008BDFFF70BFE002880
:103BF000F3D11046DFF804C000DFF5E7013A04080E
:103C0000EFF310832BB9EFF31180003818BF0120B8
:103C10007047012070470C30D0E85F3F13B9BFF305
:103C20002F8F04E05A1EC0E8512F01B1F4E798B27B
:103C3000003818BF0120704730B500F10C02C1896F
:103C4000D2E85F3F994202D8BFF32F8F04E05C1C9B
:103C5000C2E8554F05B1F3E7C0899BB2984294BFC3
:103C60000020012030BD0000F8B515464FF6FE7368
:103C7000421E06460F469A4201D8884207D26FF08C
:103C800003010024002000F0CFFF2046F8BD7DB1E5
:103C9000AC682A6844B114F0030302D1E9680F2923
:103CA00022D86FF00801ECE7EB68002BF9D115463C
:103CB000114BD3F8980080B1FFF7C1FA0446A8B1C0
:103CC0000123F622A370002365602270A3600B4AD3
:103CD000094BA781E6819A66D7E701221021D3F824
:103CE0008000FFF733FAE9E71546EAE76FF00401D1
:103CF00000F09AFFC9E700BF74060024013D0408E4
:103D0000836810B504465BB1FFF785FF40B12046DC
:103D100000F0CCFA0022BDE81040114600F068BC6B
:103D200010BD38B5054610B10378F62B07D02846EC
:103D30006FF0030100F078FF6FF0030038BD846876
:103D40003CB100F0B3FA0122002100F051FC002048
:103D5000F4E7FFF771FF38B928466FF0100100F063
:103D600063FF6FF00200E9E72046E7E738B50D464C
:103D7000044610B10378F62B07D020466FF00301FC
:103D800000F052FF6FF0030038BDFFF744FF68B941
:103D900075B12946632000F0D3FC20B1064B2046C4
:103DA000596900F071FA6FF00100EDE70020EBE7D0
:103DB0006FF00200E8E700BF7406002470B5054606
:103DC00010B10378F62B07D028466FF0030100F0FE
:103DD0002BFF6FF0030070BD836863B1284600F0CD
:103DE00065FA00226FF0020100F002FCA8680028CA
:103DF000F4D100F0E3FAAB78002613F001032E7043
:103E00000FD0094B2946D3F8984024B12046FFF73C
:103E100030FA3046DFE7D3F88000FFF7CCF92046D0
:103E2000D9E71846D7E700BF7406002410B504464A
:103E3000EFF3058333B100206FF0050100F0F4FECD
:103E4000002010BDFFF7DCFE0028F4D12046DFF88B
:103E500008C000DFF5E700BF693C0408024608B56A
:103E6000EFF3058343B182B910466FF0030100F010
:103E7000DBFE6FF0030008BDFFF7C2FE0028F2D1A1
:103E80001046DFF824C000DFF5E71378F62BEBD1FE
:103E90000029E9D11046FFF7BEFE002814BF00201C
:103EA0006FF00200E7E700BF6D3D040810B504465F
:103EB000EFF3058343B184B920466FF0030100F0AE
:103EC000B3FE6FF0030010BDFFF79AFE0028F2D199
:103ED0002046DFF830C000DFF5E72378F62BEBD182
:103EE0002046FFF7A9FE20B1204600F0B7F80020D9
:103EF000E9E720466FF0100100F096FE6FF0020037
:103F0000E1E700BF233D0408024608B5EFF305834F
:103F10003BB110466FF0050100F086FE6FF0050022
:103F200008BDFFF76DFE0028F3D11046DFF804C08E
:103F300000DFF5E7BD3D040810B5D0E85F3F5A1C2F
:103F4000914200D80022C0E8542F04B1F5E798B29E
:103F500010BD000038B51C4C00F0FCFEE3680133D6
:103F6000E36000F0E9F9002000F028FA236D03B1C6
:103F70009847226C32B3A369E16B994203D0D969A7
:103F8000E36301B9DA61DA69C2B9237A022B19D184
:103F9000656ABDB1E36B95F9202093F920309A4210
:103FA00010D1284600F08BF9E06B00F0A3F9284609
:103FB00000F0FCF9236CE563EB6103E0013ADA61A0
:103FC000002AE2D038BD00BF7406002470B5224C30
:103FD00004F1560504F15A06B4F85410D5E85F3FD1
:103FE00013B9BFF32F8F04E05A1EC5E8502F00B15C
:103FF000F4E79BB25BB33046FFF79EFFE36D53F8E7
:10400000200020B30378F13B082BE5D801A252F839
:1040100023F000BF39400408D93F04083F4004089A
:10402000D93F0408D93F0408434004084740040826
:10403000D93F04084B400408236E9847CCE7636ED1
:10404000FBE7A36EF9E7E36EF7E7236FF5E70020E0
:10405000BDE8704000F0B2B97406002470B5164C8B
:104060000546B4F8541004F15602D2E85F3F994275
:1040700002D8BFF32F8F04E0581CC2E8560F06B1D8
:10408000F3E79BB2994205D829460220BDE870406B
:10409000FEF7CDBF04F15800FFF74EFFE36D43F884
:1040A0002050637A23B9054B4FF080525A6070BD9F
:1040B0000123A372FBE700BF7406002400ED00E0BB
:1040C000EFF310832BB9EFF31180003818BF0120F4
:1040D0007047012070470378F12B00D07047C0680B
:1040E000F9E7000010B5C469621CD0E904310CD1B5
:1040F00003B1596142691AB113610023436101E0C0
:10410000074A13630023C36110BD1BB1DA6959610B
:104110002244DA614269002AEED1014AD362F1E712
:104120007406002401230A4A90F9201043701C32BF
:10413000936810B51BB193F920408C4205DCC0E9AF
:104140000232906003B1D86010BD1A469B68F1E757
:1041500074060024014B5869704700BF74060024A0
:1041600008B500F071FDDFF810C000DF4FF0FF313F
:10417000002000F047FDFEE759460408930710B5FC
:1041800002F0010422D400F1280384B153E8000FA7
:1041900000EA01028A4203D0BFF32F8F002005E01E
:1041A00020EA010243E8002404B1EFE710BD53E820
:1041B000000F084203D1BFF32F8F002005E020EA53
:1041C000010243E8002404B1F1E7EFE7806A01EA65
:1041D00000031CB1994218BF0020E7E7002B08BF7D
:1041E0000020E3E7084A0021136B10B53BB94FF0FC
:1041F000FF34C0E90431C46121B1086110BD194622
:104200001B69F3E71063F9E774060024002310B577
:104210000380044683789A0708D513F0100F016BCA
:104220000E4B0FD0D3F88400FFF723F8A378DB07F9
:1042300012D50A4B2146D3F8880038B1BDE81040AA
:10424000FFF717B8586FFEF7B6FFEFE7D3F8800017
:10425000BDE81040FEF7AFBF10BD00BF74060024DC
:10426000C2780346D20701D4FFF7D0BF04224270C0
:104270000022C260034A516B816001B1C860536380
:10428000704700BF7406002491F92020836810B5A0
:104290001BB193F92040944205DAC1E902308160F4
:1042A00003B1D96010BD18469B68F1E783689A682E
:1042B000826002B1D06000221846DA607047C2689E
:1042C0002AB18368936003B1DA600023C36070474A
:1042D00010B50146044664B12378F12B07D0084697
:1042E000FFF7EDFF2046BDE81040FFF7CDBFE468C3
:1042F000F1E710BD0123014643700148FFF7C4BF39
:104300009006002470B50B4D2E7A022E10D16C6AE7
:1043100074B1696994F9202091F920309A4207D14B
:104320002046FFF7CCFF0846FFF7E4FF6670AC615C
:10433000002070BD7406002438B5164DEC6A44B3F5
:10434000E369013BE36123BB6378732B06D009D893
:10435000532B0BD003F0DF03432B0DD12046FFF787
:10436000BAFE09E003F0EF03832BF6E72046FFF7E0
:10437000B2FE2146FFF7BEFB2046FFF7A0FFFFF786
:10438000B9FF246924B1E369002BDDD00023636108
:10439000EC6238BD7406002490F82230826B13F072
:1043A000100F0CBF60202020104470470223437080
:1043B000014B9861704700BF7406002470B5124D20
:1043C00004462E7A696990B9022E0FD16C6A6CB1DD
:1043D00094F9202091F920309A4207DD2046FFF71A
:1043E0006EFF0846FFF79EFE6670AC6170BD022E40
:1043F00005D190F9202091F920309A42F1DC204635
:10440000BDE87040FFF776BF740600242DE9F04F39
:1044100085B08146029128B96FF00301002400F0B5
:10442000F1FBBCE0002A45D0966846B1B40702D142
:10443000D368432B06D86FF008010020EEE7D3685D
:10444000002BF8D19769D2E904453CB1600702D14D
:10445000002D40F0B2806FF00A01EEE72FB17B1E15
:10446000372B03D96FF00B01E7E71827002D40F039
:10447000A880D2E900A301934EBB574BD3F8880024
:10448000F0B1FEF7DCFE064600283AD04FF00108F6
:10449000002C44D1DFF840B1E5B9504ADBF8840084
:1044A000556DB8B1FEF7CBFE0246E0B148F01008FA
:1044B000344623E092461446182715460192DCE75D
:1044C00001224421D3F88000FEF740FEDBE74FF0E5
:1044D0000008DDE722462946DBF87400FEF736FEC9
:1044E00002460028E4D1B8F1000F16D0DBF888208E
:1044F00052B110463146FEF7BCFE002248F00208D9
:104500007CB96FF0040198E73146DBF88000039234
:10451000FEF751FE039A1446F0E74246EEE72246C4
:10452000344640F2F1137FB2FD2184F802802380EB
:10453000019BC4F804A0E370002384F8207084F881
:10454000217061846563C4E90233C4E90433C4E9BA
:104550000633C4E90933C4E90B32A5F1400313441F
:10456000C4E90E391E4B13601C4B1B685B071AD441
:10457000A36B00201A4603F1340143F8040B99425F
:10458000FBD1184B2046C2E90D394FF08073D3633D
:10459000029B1362104B144A1A66FFF70FFF204666
:1045A00005B0BDE8F08FAD084FF0CC33113D002DC4
:1045B000DED0013D42F8043FF9E7002F7FF44FAF12
:1045C000182769077FF447AFA5F14801074B9942C7
:1045D0007FF64FAF3FE700BF74060024ECA6050846
:1045E000A52E5AE26141040815460408B7FFFF7F73
:1045F00038B504461546FFF7CFFE01602046FFF7A9
:1046000071FD1DB1BDE83840FFF7D8BEBDE83840A8
:10461000FFF770BE10B543780446332B0CD1416AC6
:1046200090F82320FFF7AAFD014628B1204600227A
:10463000BDE81040FFF7DCBF10BD10B5044680692F
:1046400018B100221146FFF7D3FF6378232B02BF76
:10465000A36800229A6110BD70B50F4C267A022E15
:1046600018D1636AB3B16569E86AFFF721FA284691
:10467000FFF7E3FF04F11C00FFF718FE4670A0618E
:10468000EFF30983AB63002328466361BDE8704004
:10469000FFF7E6BD70BD00BF7406002410B50446E8
:1046A00010B10378F12B07D020466FF0030100F022
:1046B000A9FA6FF0030010BD437803F00F03022B3B
:1046C0001ED0032B2BD0012B2ED1FFF7F8FDE06A73
:1046D000FFF7EEF92046FFF7B0FF6178022926D1F7
:1046E0001548FFF7E3FD154B41709861EFF3098220
:1046F000A26300225A612046FFF7B2FD0020DAE7EC
:104700000E4B1A7A022A02D15B6A002BDFD16FF0BE
:104710000201204600F076FA6FF00200CBE7FFF7C7
:10472000CEFDFFF7DFFCD2E76FF00201F2E70020D9
:10473000FFF744FEDFE700BF900600247406002464
:1047400038B5174C0246237A022B27D1606A60B134
:1047500060694B1C427009D1FFF744FD1148FFF717
:10476000A5FD02234370A061012038BDE36A002249
:1047700013B1DD69A9420BD2C161C0E904325AB15B
:104780001061002BEAD0DA695861511AD961E5E766
:104790001A46491B1B69EBE7E062F2E70020E4E7F9
:1047A000740600249006002438B50D4C00210D48F5
:1047B000A26DFFF72BFE0C4D636EA8625BB19847AC
:1047C00058B9E26DE96C206EFFF720FEA86400384E
:1047D00018BF012038BD0120FCE70020FAE700BF28
:1047E000ECA60508754B04087406002410B50446B1
:1047F000EFF3058333B100206FF0050100F002FAFA
:10480000002010BDFFF75CFC0028F4D12046DFF843
:1048100008C000DFF5E700BF0D44040808B5EFF35A
:10482000058313B1054B586908BDFFF749FC002803
:10483000F8D1DFF80CC000DFF6E700BF74060024F3
:104840005541040808B5EFF305833BB100206FF034
:10485000050100F0D7F96FF0050008BDFFF730FC47
:104860000028F3D1DFF804C000DFF6E705430408B1
:1048700010B5044600F0F4F9EFF305833BB1204690
:104880006FF0050100F0BEF96FF0050010BDFFF7F5
:1048900017FC0028F3D12046DFF804C000DFF5E75D
:1048A0009D4604080C4A30B5536C002413B11D69B1
:1048B0008D420AD90161C0E902431BB11D699860AC
:1048C000691A19612CB1E06030BD1C46491BDB68D8
:1048D000ECE75064F8E700BF740600242DE9F041CE
:1048E000184D6C6C54B3236901276E69013B236139
:1048F000236913BBE3680BB1A2689A606B64002361
:1049000004F11801E86C1A46FEF700FF58B1214681
:104910000320D5E905836B61FEF789FB6B6913B949
:10492000B04508BF0026E378012B09D16169204614
:10493000FFF7B8FF6C6C002CDAD16E61BDE8F08136
:104940006770F7E77406002408B5FEF7CDFE18B9C6
:10495000034B044A1A6508BD4FF0FF30FBE700BF68
:1049600074060024DD480408044607B54FF0FF3301
:10497000002269462046FEF709FF0028F6D1DDE94E
:1049800000309847F2E7000008B5094A094B1A6061
:10499000094B9B1A094A1360094A0A4B1A600A4BD1
:1049A0009B1A0A4A136000F051F800F083F800BF28
:1049B00000FC07247C310024000008247831002406
:1049C000A0CB0024D434002400FC0724D0340024DD
:1049D00038B50E480B250E4B1C24456003600D4B6B
:1049E000C4608360FFF7ACF80B4B18600B480C4BAE
:1049F000C460C0E900350B4B8360FFF7A1F80A4B98
:104A00001860BDE8384010F021B900BF48310024DB
:104A1000C0A705085C310024583100241831002457
:104A2000CDA705082C31002428310024FDF72ABE2B
:104A3000024B4FF0FF311868FFF79AB85831002445
:104A4000014B1868FFF7ACB85831002408B502F0E4
:104A50009FFF0C4B0C4998684FF00053C21802F1AD
:104A60006042126843F8042B8B42F7D1054B4FF09C
:104A700000529A600CF006F90CF0DEFFBDE8084029
:104A800000F015B800ED00E0980200207047704774
:104A900008B500F043F8FFF7F9FFFFF799FFFFF7BC
:104AA000F6FF03F047FFBDE80840FFF7BFBFFEF782
:104AB000C9BA0000114C124B23614FF400436361EB
:104AC0004423E3600F4BA3601823A3610E4B07B58B
:104AD000224600210D482360FFF788FE034628B9CF
:104AE00022460B4900900B4803F02CFFFEF7C2FA58
:104AF000002309491A460093F5E700BFF8C30024D4
:104B0000F843002480310024E7A70508914A0408EF
:104B1000ECA705081D01018008A805081FB5064B74
:104B20006C460FCB84E80F002046FFF709F8034BD3
:104B3000186004B010BD00BF20A80508F043002491
:104B400073B506460C46154603F0F6FE58B9063412
:104B5000324628462ABF054B054953F82410002346
:104B6000009303F0EFFE02B070BD00BFE4A905089A
:104B700038A9050808B500F0F7F80000002307B5CC
:104B8000421E00930023042A19D8DFE802F003082C
:104B90000C10140001220C490C4803F0D3FE022231
:104BA0000B490C48F9E703220B490C48F5E70422AE
:104BB0000B490C48F1E705220B490C48EDE702468A
:104BC0000B490C48E9E700BF30A805082501028021
:104BD00051A805082601028076A805082701028051
:104BE000ABA8050828010280E6A805082A01028072
:104BF00026A90508000102800146014AFFF7A0BF6F
:104C000031010180014AFFF79BBF00BF32010180E3
:104C1000014AFFF795BF00BF37010180014AFFF746
:104C20008FBF00BF3301018011F1110F02D0024A82
:104C3000FFF786BF704700BF34010180014AFFF7CC
:104C40007FBF00BF3801018010B5FFF7E7FD034BC0
:104C50001B6813B1BDE81040184710BDC4310024D3
:104C6000024B1B6803B11847704700BFC4310024D2
:104C7000024B987A003818BF012070477406002450
:104C800008B5FEF70DFA0022064903F069FFC31CC0
:104C900004D98B220449054803F0C4FBBDE8084051
:104CA000FEF712BA714C04081FAA050831AA0508BC
:104CB000B0F57A7F10B50C4604D0322219491A4853
:104CC00003F0B0FB03F064F80028184A16DB00F18B
:104CD0006043F02103F5614383F80013916800F10C
:104CE000100341F82340BFF34F8F926852F82330EE
:104CF0009C420AD03F220B490D48E1E700F00F0328
:104D0000F021043B13441976E8E7002808DB01236F
:104D1000420900F01F0003FA00F0064B43F822009E
:104D2000002010BD1FAA05085EAA050800ED00E0DE
:104D30006BAA050800E100E008B503F099FEBDE8A4
:104D4000084003F050B90000014B186803F080B927
:104D500000340024014B186803F03CB900340024EF
:104D600008B503F015F808BD024C08B5236898474C
:104D7000FCE700BF1807002403680BB1084618477A
:104D8000704710B50446FBF704FB204610BD000039
:104D9000044B0022C3E901221A611A60024ADA6058
:104DA000704700BFC8310024794D040810B50022B7
:104DB000034600F1110403F8012B03F8012B9C4278
:104DC000FBD1418210BD000042F60211024808B535
:104DD000FFF7ECFF08BD00BFDC31002410B504462E
:104DE00004F096FC204610BD10B5084C204604F097
:104DF0004FFC00232046064A84F8243023630549EB
:104E0000C4E90A33BDE8104003F0DCBFF0310024F0
:104E100000000024DD4D0408F8B50546064655F8A7
:104E2000044B8CB90D4F386818B14FF0FF31FEF7C5
:104E30009FFE346824B928462C4604F029FC3560CE
:104E4000386808B1FEF7ACFEAC4204D08B220449AE
:104E5000044803F0E7FA2046F8BD00BFF043002401
:104E6000BCAA0508CBAA05080368012200211B691A
:104E70001847036800221B691146184707B50190BF
:104E800003F0C8FB012101980AF022FE03B05DF88F
:104E900004EB03F0D5BB07B5019003F0BBFB002189
:104EA00001980AF015FE03B05DF804EB03F0C8BBEF
:104EB00007B5CDE9001003F0ADFBDDE900100AF005
:104EC00003FE03B05DF804EB03F0BABB094B30B549
:104ED0001A46094CD3F89450A542FBD1036829B176
:104EE00081680B604FF44073536130BDC1681B048F
:104EF000F7E700BF006402580003008041680346E2
:104F000030B471B1D0E9032000F0010402B944B11A
:104F1000451001EB60000CB149598A58996830BCC2
:104F2000104730BC7047036870B504460D461B68D7
:104F3000984704F130002946C4F8CC500BF0F8F93A
:104F4000236820465B68BDE8704018477FB5064679
:104F50001D46044656F8303BCDE902211B689847B0
:104F60009DF82030304683F00103DDE902210093F3
:104F70002B460BF0D3FB2368064620465B68984718
:104F8000A81B18BF012004B070BD7FB506461D46A2
:104F9000044656F8303BCDE902211B6898479DF83E
:104FA0002030304683F00103DDE9022100932B46D7
:104FB0000BF04EFB2368064620465B689847A81B0B
:104FC00018BF012004B070BD70B590B00D461446F6
:104FD00000211C2202A810F03BFB012600232946D9
:104FE00002A800961A4602F00EFA1C22002109A817
:104FF00010F02EFB0023214609A81A46009602F065
:1050000002FA0A9B1A68099B1A4203D16FF0010049
:1050100010B070BD039B1968029B194046D109A8C6
:105020000A24FFF745FF09A8FFF728FF002109A878
:10503000FFF73EFF002109A8FFF748FF052004F015
:1050400093FA012109A8FFF733FF012109A8FFF70F
:105050003DFF052004F088FA013CE7D102A8FFF7E4
:105060000DFF214602A8FFF731FF052004F07CFA6E
:10507000012109A8FFF72AFF052004F075FA012194
:1050800002A8FFF723FF052004F06EFA02A8FFF73D
:1050900002FF09A8FFF7FFFE0A9B1A68099B1A4244
:1050A000B4D0039B1A68029B1A42AFD00020AFE72E
:1050B00010B50446FBF773F9204610BD064B10B53A
:1050C00004460360806A08B102F0A8FC201DFFF7C7
:1050D000EFFF204610BD00BFF8AA050810B5044632
:1050E000FFF7ECFFFC21204604F0F2F8204610BD4B
:1050F00010B504460021FBF747F9204610BD0022F9
:10510000034600F1280143F8042B03F8012B9942D0
:10511000FBD1704708B5D030FFF77EFEBDE80840F0
:1051200004F0BEBA08B5D030FFF776FEBDE80840FF
:1051300004F0D4BAF8B51B4B04460D46164640F8A9
:10514000043B04F13007FFF7D3FF0021164B9C22EC
:10515000A18538466361A461C4E90711C4E9091156
:1051600010F076FA114B04F1D000C4F8CC30FFF700
:10517000C6FF2046FFF7CEFF324629462046A4F858
:10518000F850A4F8FA60FFF71FFFB4F9FA20B4F959
:10519000F81038460BF022FA2046FFF7C3FF2046EE
:1051A000F8BD00BFF8AA0508FD4E0408A08601005E
:1051B00070B504460D46164600219C2210F048FAB0
:1051C0003246294620460BF009FA204604490BF0E6
:1051D000AFF8204601210AF066FE204670BD00BFF0
:1051E000A08601000BF0A4B8CAB2002342F001026D
:1051F00019460AF045BE0AF09FBE0AF0ABBE10B5D4
:1052000014460AF0DFFE001B18BF012010BD7047D6
:1052100070B500F10C060446B0F95820B0F95610EC
:1052200030460CF051F9D4E918530DB9DA070ED510
:105230005A1094F8681004EB6300DB0748BFA358CA
:10524000B4F96A2048BF5D59B4F96C30A847216DA4
:1052500030460CF061F8224630460249BDE8704005
:1052600009F04CBE5955040873B51E46C36D04467B
:105270000D462BB140F235122B492C4803F0D2F8E1
:105280002B490192C0E9181303681B689847019ADB
:1052900084F86850A4F86A20A4F86C60042D0BD838
:1052A000DFE805F01603111619004FF0FF33012156
:1052B00004F10C0009F018FF236820465B6802B077
:1052C000BDE870401847134602214FF0FF32EFE768
:1052D00033462946ECE70123013284F884300ED0AE
:1052E0001C2003F0C1FFB4F96A6005461C220021AE
:1052F00010F0AEF93146284602F069F82567B4F996
:105300006C300133D8D01C2003F0AEFFB4F96C60D0
:1053100005461C22002110F09BF900223146284648
:1053200002F058F86567C7E721AB050830AB050800
:105330006952040810B50446FBF731F82046FCF723
:105340004FFE204610BD70B506460D46044656F881
:105350000C3B1B689847304629460BF0DDFF23685D
:10536000204625655B68BDE8704018477FB5054657
:105370000446019355F80C6BCDE902213668B0471D
:1053800028460399DDE901320CF02AF8236820460B
:105390005B6804B0BDE870401847000070B5054672
:1053A000044655F80C3B1B68984728460BF04EFF07
:1053B00094F8843005467BB1626F6AB10B4B0C48A0
:1053C0001946D3F894608642FBD1136855B99268A8
:1053D00013604FF440734B61236820465B68984725
:1053E000284670BDD2681B04F2E700BF0064025873
:1053F0000003008038B50546044655F80C3B1B6891
:10540000984728460BF032FF94F88430054643B1A4
:10541000236F00F001055A681B6812681A4218BF12
:105420000025236820465B689847284638BD0C3025
:1054300009F012BE10B50C460C3009F041FE2046B2
:1054400010BD00002DE9F04198461F4B0025044691
:1054500003600F461D4B2946164685604360242293
:105460000C3010F0F5F804F13000FAF79DFF04F16C
:105470004000FAF799FF40F201136566A4F8543032
:105480004FF6FF73C4F88050A4F86A30A4F86C306B
:10549000A368C4F850805A1013F0010F04EB6300A6
:1054A0006368A4F85670A4F8586084F8685084F8CB
:1054B0008450C4E91755C4E91E551CBFA258D358DF
:1054C00098472046BDE8F08150AB0508115204080A
:1054D00003682DE9F04104461B6815460F469847BE
:1054E00094F85430EE1C03B17DB194F855300BB1F3
:1054F000012D0AD0394604EB0610FCF737FE23686D
:1055000020465B68BDE8F041184703F083F8384651
:1055100004EB061604F10C08FAF753FF88B1304685
:10552000FAF74FFF08B903F04BFB39463046FCF75A
:105530001DFE01222946404609F0ECFC03F080F8EC
:10554000DDE73046FAF73DFF08B103F04FFB304688
:10555000FFF7F0FE0022EDE7033110B500EB011478
:105560002046FAF72EFF10B12046FAF74BFF10BD88
:10557000036870B504461B680D46984794F854308C
:10558000AB422DD065B194F855304BB9A268636831
:10559000511004EB6200D20744BF6258D3589847B9
:1055A00004F1300603F036F805B33046FAF709FF88
:1055B00050B13046FAF70EFF03F002FB0122002142
:1055C00004F10C0009F0A6FC03F03AF884F85450FA
:1055D00035B994F855301BB904F10C000BF01CFDE3
:1055E000236820465B68BDE87040184704F10C0052
:1055F0002A46294609F08EFC3046FAF7E2FE0028DA
:10560000E2D003F0F3FADFE7036870B504461B68E5
:105610000D46984794F85530AB422DD065B194F8BB
:1056200054304BB9A2686368511004EB6200D20792
:1056300044BF6258D358984704F1400602F0EAFF8D
:1056400005B33046FAF7BDFE50B13046FAF7C2FE58
:1056500003F0B6FA012204F10C00114609F05AFCDD
:1056600002F0EEFF84F8555035B994F854301BB968
:1056700004F10C000BF0D0FC236820465B68BDE809
:105680007040184704F10C002A46012109F042FC41
:105690003046FAF796FE0028E2D003F0A7FADFE7DB
:1056A0001FB5184B0446002103606846FCF74DFB0C
:1056B000002269462046FFF70BFF6846FAF77BFE9B
:1056C00000216846FCF741FB012269462046FFF7AE
:1056D000FFFE6846FAF76FFE94F8543013B994F859
:1056E00055301BB104F10C000BF096FC04F14000A6
:1056F000FAF761FE04F13000FAF75DFE204604B0CF
:1057000010BD00BF50AB050810B50446FFF7C8FF39
:105710008821204603F0DCFD204610BD437D10B5F6
:1057200004461BB1037D0BB103F060FA204610BDA7
:1057300013B5044601A802F079F9637D53B9237DBE
:105740000BB103F03DFA206902F001F90123C4E92D
:105750000001637501A802F071F902B010BD37B500
:10576000044601A80D4602F061F900230022C4E9B5
:1057700000236B7D4BB1286902F0E9F8D5E90032CE
:10578000C01A61EB0201C4E9000101A802F056F958
:10579000204603B030BD30B585B00D46044603A8A1
:1057A00002F044F929466846FFF7D9FF009B019AA9
:1057B000D5E902105B1840EB020203A8C4E90032ED
:1057C00002F03CF9204605B030BD13B5044601A8EF
:1057D00002F02CF9206902F0BAF800220023C4E993
:1057E0000001C4E9022301A802F028F902B010BDAB
:1057F000D0B50023002600270446016102754375D9
:10580000C0E90067C0E90267FFF7DFFF2046D0BDAF
:1058100010B5044602F0AEF8012201462046FFF71B
:10582000E7FF204610BD10B5044601F00FFE002230
:1058300001462046FFF7DCFF204610BD03681B68C9
:105840001847000010B5084B0446002208462360A4
:105850000023A1610549C4E902230023C4E90433FC
:1058600002F004F8204610BD68AB05083D58040856
:1058700007B500F108010090806902F035F803B027
:105880005DF804FB00F10801806902F045B80020D2
:1058900070476FF01C0070476FF01C0070476FF08E
:1058A000150070476FF01500704701207047012008
:1058B0007047002070470020704770B511F0010458
:1058C00005468EB204D0FFF769FD041E18BF0124FF
:1058D000F30605D52846FFF78DFD08B144F0100406
:1058E000204670BDA0F18800FFF7E7BF08B5FFF7BD
:1058F0003FFE002008BDA0F18800FFF7F7BF08B504
:10590000FFF782FE002008BDA0F18800FFF7F7BF77
:10591000034B10B504460360FFF7C2FE204610BDDE
:1059200074AB0508A0F18800F2E700BF10B504468B
:10593000FFF7EEFF8C21204603F0CAFC204610BD85
:10594000A0F18800F2E72DE9F04106460D46174622
:10595000CAB102F05CFE80F0010313F0FF0403D033
:10596000336830461B68984705EB0708454505D066
:1059700015F8011B3046FFF75DFDF7E71CB13368F2
:1059800030465B6898473846BDE8F081A0F1880052
:10599000FFF7D9BF38B504460D4662B103681B68EE
:1059A00098472046FFF743FD2870236820465B6830
:1059B0009847012038BD1046FCE7A0F18800FFF7AA
:1059C000E9BF000010B50446FFF73CFD044B20463C
:1059D00003F1080244332260C4F8883010BD00BFD0
:1059E0006CAB050830B5056885B0044601932D6899
:1059F000CDE90221A84720460399DDE90132FFF7EE
:105A000033FC236820465B6805B0BDE8304018478A
:105A100010B50446FAF7C3FC2046FCF7E1FA20462D
:105A200010BD70B504460E4602F0F4FDA5695DB1E7
:105A300004F10800FFF7ECFF012384F8216084F8EB
:105A400020300023E361A36102F0FAFD2DB121466D
:105A50002846BDE8704000F078B970BD08B103F089
:105A60001FBE02F0D7BD08B103F038BE02F0E8BD9A
:105A70002DE9F041044686B00E46174602F0CAFDF5
:105A8000A56902F0DDFD35B301AD0021284603F024
:105A900061FE02F0BFFDD4E9068323B139220F492C
:105AA0000F4802F0BFFCE56102F0CAFDB8F1000F3B
:105AB0000ED03946284603F055FE48B93046FFF768
:105AC000CDFF20460121FFF7ACFF3046FFF7CBFFAB
:105AD000284603F068FE06B0BDE8F08115AC050865
