:020000040804EE
:100000000000082415D1040861D104081176040801
:10001000177604081D760408237604080000000003
:100020000000000000000000000000005123040850
:1000300061D1040800000000EB230408FB2304083E
:1000400061D1040861D1040861D1040861D10408B8
:1000500061D1040861D1040861D1040861D10408A8
:1000600061D1040861D1040861D1040861D1040898
:1000700061D1040861D1040861D1040861D1040888
:1000800061D1040861D1040861D1040801DC0408CD
:1000900011DC04080DDC04081DDC040861D104082F
:1000A00061D1040861D1040861D1040861D1040858
:1000B00061D1040861D1040861D1040861D1040848
:1000C00061D1040861D1040861D1040861D1040838
:1000D00061D1040861D1040861D1040861D1040828
:1000E00061D1040861D104080000000061D1040856
:1000F00061D1040861D1040861D1040861D1040808
:1001000061D10408D5CD040861D1040861D1040887
:1001100061D1040861D1040861D1040861D10408E7
:1001200061D1040861D1040861D1040861D10408D7
:1001300061D1040861D1040861D1040861D10408C7
:1001400061D1040861D10408000000000000000033
:1001500061D1040861D1040861D1040861D10408A7
:1001600061D1040861D1040861D1040861D1040897
:1001700061D1040861D1040861D1040800000000C5
:1001800061D1040861D1040861D1040861D1040877
:1001900061D1040861D1040861D1040861D1040867
:1001A00061D1040861D1040861D1040861D1040857
:1001B00061D1040861D1040861D1040861D1040847
:1001C00061D1040861D1040861D1040861D1040837
:1001D00061D1040861D1040861D1040861D1040827
:1001E00061D1040861D1040861D1040861D1040817
:1001F00061D1040861D1040861D1040861D1040807
:1002000061D1040861D1040861D1040861D10408F6
:1002100061D1040861D1040861D1040861D10408E6
:1002200061D1040861D1040861D1040861D10408D6
:1002300061D1040811D1040861D1040861D1040816
:1002400061D1040861D1040861D1040861D10408B6
:1002500061D1040861D1040861D1040861D10408A6
:1002600061D1040861D1040861D1040861D1040896
:1002700061D1040861D1040861D1040861D1040886
:1002800061D1040861D1040861D1040800000000B4
:1002900061D1040861D1040810B5054C237833B945
:1002A000044B13B10448AFF300800123237010BD49
:1002B0004012002400000000FC9E050808B5034B16
:1002C0001BB103490348AFF3008008BD00000000E4
:1002D00044120024FC9E0508154B002B08BF134B4D
:1002E0009D46A3F5803A00218B460F461348144AD9
:1002F000121A12F0F5FC0F4B002B00D098470E4B52
:10030000002B00D098470020002104000D000D486C
:10031000002802D00C4808F02DF811F0E1FF200071
:10032000290004F0C5F808F039FA00BF0000080001
:1003300000000824000000000D44040840120024BE
:10034000B8B90024758304080000000008B5064908
:10035000064801F0BDFE4FF47A7008F0EFFCBDE8EE
:10036000084001F043BF00BF6478050880170024EF
:1003700008B54FF4E131084800F016FB064800F0DC
:1003800019F910B901F032FFF8E704490248BDE855
:10039000084001F09DBE00BF801700246C7805085E
:1003A000064B00221A600122054B1A600222054BFF
:1003B0001A600322044B1A60704700BF64120024C5
:1003C000681200245C1200246012002430B5A1F1F0
:1003D0001004002500F00F02CD7302390009D3B2DA
:1003E000092ACCBF373330330B748C42F2D130BD85
:1003F0006720704708B5084A0121084B57201A604A
:1004000001F016FF0121572001F05CFF044B43F27D
:10041000D2021A6008BD00BF004000586C120024D0
:100420000040005210B5044608F0ECFD2146FFF7ED
:10043000CDFF08F0EDFD04F11001FFF7C7FF08F054
:10044000EDFD04F12001FFF7C1FF302010BD0000D9
:1004500008B54DF65972002107480BF043FABFF377
:100460004F8F0649064BCA6802F4E0621343CB6023
:10047000BFF34F8F00BFFDE76C12002400ED00E0DA
:100480000400FA0570470B6803604B6843608B6893
:1004900083607047C3680BB19B681847704710B5FD
:1004A0000446FFF7F7FF204610BD0020704770B5E7
:1004B00090F8383105461446F3B90368DB6998476C
:1004C00004F4706304F00F02B3F5407F04F0F0030E
:1004D0000CBF07210821302B0CBF02230123012A66
:1004E00008D0901E42424241A869BDE870400068B1
:1004F00004F0E2BA0222F7E770BD10B590F8383187
:1005000004462BB9A369186804F01AFB0028F9D037
:1005100010BD38B590F838510446A5B983695BB170
:10052000186848B10368DB689847A36904211D6017
:10053000A06908F0A3F9A5610023C4F82831C4F824
:100540002C31C4F8303138BD13B590F83831044639
:100550006BBBA369186804F0C7FA40B307F030FB1F
:10056000A36901220DF10701186803685B699847C8
:10057000D4F83031B3F5807F16D0D4F83031B3F5EC
:10058000807F11D0D4F828319DF80720234483F8C8
:100590002820D4F828310133DBB2C4F82831D4F84C
:1005A00030310133C4F8303107F020FBD1E702B01D
:1005B00010BD000008B590F838313BB1012001F0C2
:1005C00005FE0648BDE8084001F073BA82691AB119
:1005D0001368003318BF0123184608BD501E0024BD
:1005E00070B504460D4601F064FA30B1236829461F
:1005F00020461B6CBDE87040184770BDA0F5A07088
:10060000EEE7000013B590F8383104468DF8071076
:100610002BB1C9B20B48FFF7E3FF02B010BDA369CD
:10062000186804F08DFA0028F9D0A36901220DF1B1
:100630000701186803681B699847013018BF01203B
:10064000EBE700BF501E00242DE9F0410746884625
:10065000164601F02EFA70B10024A6420CD9351BC3
:1006600008EB04013846402D28BF40252A462C447B
:1006700000F060FFF1E704462046BDE8F081A0F5F8
:10068000A070E1E770B590F8383105460E46144683
:100690002BB10F48FFF7D8FF0446204670BDAB6969
:1006A000186804F04DFA0028F9D0AB6901211868E8
:1006B000D0F8883088301B6B9847AB6922463146AA
:1006C000186803681B699847013008BF0024E4E7F5
:1006D000501E002430B50446C3B001F0D7F90546DA
:1006E000D4F85832C3F58073984203DDD4F85852D9
:1006F000C5F580752A4601AB02A9204601F010F825
:10070000019902AB00226D1A1D44D4F85832B3F59A
:10071000807F19D08A4217D0D4F85832B3F5807F41
:1007200010D0D4F85032A85C234483F85001D4F898
:1007300050320133DBB2C4F85032D4F858320133AE
:10074000C4F858320132E0E743B030BD38B5044652
:1007500000F0D2FB2046FFF7BDFFD4F858522046E8
:1007600000F0D2FB284638BDA0F5A070EEE70000EF
:1007700010B590F8383104462BB10648FFF7E6FF74
:100780000446204610BD07F01BFAD4F8304107F0AC
:100790002DFAF6E7501E002438B5044600F0ACFBF5
:1007A0002046FFF797FFD4F858324BB1D4F85432B3
:1007B000234493F85051204600F0A6FB284638BD4C
:1007C0004FF0FF35F7E7A0F5A070E5E710B590F81A
:1007D000383104462BB10B48FFF7DEFF04462046B4
:1007E00010BD07F0EDF9D4F830313BB1D4F82C014D
:1007F000044494F8284007F0F9F9F0E74FF0FF348B
:10080000F9E700BF501E002438B5044600F074FB21
:100810002046FFF75FFFD4F85832A3B1D4F8543222
:10082000234493F85051D4F854320133DBB2C4F866
:100830005432D4F85832013BC4F85832204600F004
:1008400063FB284638BD4FF0FF35F7E7A0F5A070F1
:10085000DAE7000010B590F8383104462BB11148A2
:10086000FFF7D2FF0446204610BD07F0A9F9D4F8DF
:1008700030319BB1D4F82C31234493F82800D4F8BC
:100880002C310133DBB2C4F82C31D4F83031013BC8
:10089000C4F83031044607F0A9F9E4E74FF0FF341B
:1008A000F9E700BF501E00242DE9F84300251F463C
:1008B0004FF47A7304468946904629464FF4807275
:1008C000C561089EC0E90153184B03602023C0E9AD
:1008D0000535283012F004FAC4F8285184F838514C
:1008E0005FFA89F0C4F82C51C4F8305101F042FC91
:1008F00020845FFA88F001F03DFCAF4260840CDB9D
:10090000F8B201F037FCA084002E0ADBF0B201F04F
:1009100031FCE0842046BDE8F8834FF6FF73A384E2
:10092000F2E74FF6FF73E384F4E700BF8C78050825
:1009300010B4D0E9003409686210E4075DF8044B94
:1009400001EB020044BF8A58D358184701460430CF
:1009500008B5FFF7EDFF08BD034A0346C26007C9AB
:1009600083E80700704700BF7878050810B586B0A7
:1009700004460391684606A980E80C0001E90C00D2
:10098000204603A9FFF7E8FF204606B010BD37B5A3
:100990006C46054684E80C0094E80C00FFF7E6FF7F
:1009A000284603B030BD000070B590F8383186B0ED
:1009B00004460E46002B3BD1856925B9042007F07B
:1009C00029FFA0610560A369186850BB8C2007F05F
:1009D00021FF3346B4F922200546B4F9201004F073
:1009E00097FBA3691D60B4F92420531C06D0A069AD
:1009F0000321B4F92630006804F09AFBA3691D684E
:100A0000B5B1114B0026214602A800936B46019612
:100A10000CCBFFF7BCFF324602A9284604F0FEF8D3
:100A200003E0314604F035F8DDE702A8FFF737FDB3
:100A300006B070BD8C21284607F020FF0FF054F857
:100A400002A8FFF72CFDF9E74905040808B5FFF7F0
:100A50007DFF08BD08B5FFF7F9FF08BD37B54FF4B6
:100A60007A731C4C00254FF4807204F1280029464B
:100A7000E561C4E90153184B23602023C4E905351F
:100A800012F02EF90121C4F828512A46C4F82C513D
:100A900084F83811C4F830514FF0FF340F48234622
:100AA0000094FFF701FF23460094132212210C4803
:100AB000FFF7FAFE23460094112210210948FFF7A0
:100AC000F3FE23460F220E2100940748FFF7ECFEA9
:100AD00003B030BD801700248C78050890120024E4
:100AE000CC1300240815002444160024002070476D
:100AF0007047704710B5D0F88C452CB1236820465C
:100B0000DB6A9847A468F8E710BD38B50D46D0F801
:100B10008C4534B1236820462946DB689847A46891
:100B2000F7E738BD0048704748790508054B10B510
:100B30000446036005F04FFD204605F05DFE2046AB
:100B400010BD00BFC878050810B50446FFF7EEFFDA
:100B50004FF4B261204607F091FE204610BDF7B574
:100B6000002305460E46D0F88C45A4B123683146D3
:100B70000DF1030220461F6901ABB8479DF8031031
:100B80000346042905D0019A284605F033F803B03E
:100B9000F0BDA468E9E7019A9DF80310F4E770B589
:100BA00005460E4622B10021BDE8704004F02EBE7D
:100BB000D0F88C455CB123680022314620465B6941
:100BC000984710B101212846EEE7A468F2E72146D4
:100BD000F9E770B50E460546D0F88C4500213CB1CA
:100BE0002368314620469B699847A4680146F6E78A
:100BF0002846BDE8704004F0FDBEF8B505460E4637
:100C00001746D0F88C453CB1236820463A46314619
:100C1000DB699847A468F6E728460121BDE8F8405B
:100C200004F046BF70B5002186B0044605F02DF9EA
:100C300000234FF48975A188EF26ADF8063023898B
:100C4000ADF8045002258DF810301B0AE2888DF8AB
:100C5000113040F201238DF80750ADF8123040F208
:100C600003138DF809500125ADF8143004F10A037F
:100C70008DF8086005AE8DF80A501C468DF80C10F2
:100C800001AD090A8DF80E20120A8DF80B008DF8BF
:100C90000D108DF80F202A46083303CAB24243F8DC
:100CA000080C43F8041C1546F5D1128820461A801A
:100CB00006B070BDF8B5002406460D4627463046FE
:100CC00012F0DEFBA04207D9335D05F8143005EBC6
:100CD000440301345F70F2E7400000F0FE00F8BD0D
:100CE00038B50446D0F88C5535B12B6828465B6A78
:100CF000984710B9AD68F7E7284640F2023304F28E
:100D00004A51A4F84835FFF7D5FF94F84835184400
:100D100084F8480504F5A96038BD000040F20233AC
:100D200000F20A5110B50446A0F808350548FFF74F
:100D3000C1FF94F80835184484F8080504F5A1604B
:100D400010BD00BFB878050840F2023310B5044664
:100D5000A0F8C83400F2CA40FFF764FB94F8C83426
:100D6000184484F8C80404F5996010BD2DE9FF41CA
:100D700000231D4A044600F54E788DF80A300925F7
:100D800090F888350192FA228DF8083001238DF809
:100D90000C208DF80930C0238DF80B3001AB03CB4C
:100DA000C4F83803C8F8041088F80820D4F88C6513
:100DB0008EB13368002130469B689847478805F517
:100DC0004E7300F10901093FE0183A463D4411F025
:100DD00089FEB668ECE784F83A5340462D1284F851
:100DE0003B5304B0BDE8F0810902FFFF73B5044630
:100DF0000D4616460CF074FE4FF4807301462A46E9
:100E000020460093334605F0B3FC024B2046236096
:100E100002B070BDC878050810B5D0F88C3504460E
:100E2000A3B9C0F88C1594F8883508464A790B7137
:100E300094F88835134484F888350B689B6A984782
:100E4000238918442081012010BD13469A68002A86
:100E5000FBD19960E7E71FB5044605F011F801469C
:100E6000684604F02DFA4021684604F09BFAD4F855
:100E70008C4534B12368694620461B6A9847A468AC
:100E8000F7E7684604F023FA04B010BD684604F0A2
:100E90001EFA0EF029FE10B50446FFF7DCFF2046CF
:100EA000BDE8104004F0D3BF0F4808B50378BFF386
:100EB0005B8FDB0711D407F06BFA70B140F266224A
:100EC00042F241310948FFF791FF074807F082FAE3
:100ED000074A0849054807F04BFA044808BD02488C
:100EE00007F080FC0EF000FEBC180024C01800249F
:100EF000000000242D0B040810B5FFF7D5FF036890
:100F0000BDE810405B6F184710B5FFF7CDFF0368D1
:100F1000BDE810409B6F184710B5FFF7C5FF036889
:100F2000BDE81040DB6F184704F050BB04F064BB11
:100F300004F03CBB704770477047436A93F87800F1
:100F40007047D0F82401704701207047004870476F
:100F5000B47A05082DE9F04F97B004460F464B22AE
:100F6000002103A811F0BCFED4F824312679002B0F
:100F7000637B06F1010594F80EA014BF0520002044
:100F8000EDB294F80C900193002F40F0978040F25E
:100F9000092301218DF8250042F20540ADF80C30FF
:100FA0004FF481734FF0240C4FF0090EADF8103060
:100FB000802304274B228DF8133032238DF8211023
:100FC0004FF010088DF8143008238DF824104FF0DE
:100FD000030B8DF815300B23ADF8260005208DF896
:100FE000163040F202238DF82A101D34ADF8183067
:100FF00002238DF82D108DF82F1006218DF80E206C
:101000008DF817608DF81A308DF81DE08DF81F608F
:101010008DF822308DF823308DF82B008DF82CC000
:101020008DF831C08DF832308DF833108DF83400E2
:101030008DF835C08DF81E708DF829808DF82EB092
:101040008DF830708DF8361007218DF8376044F236
:1010500003068DF839108DF8491044F202018DF81D
:101060003850ADF84C1040F207518DF8425040F620
:101070000225ADF850109DF804108DF85330402330
:101080008DF83A008DF84A0020468DF8521003A9D9
:101090008DF83BA0ADF83C608DF83F808DF840E0C6
:1010A0008DF84170ADF844508DF84B908DF8543068
:1010B00011F018FD204617B0BDE8F08F0020FAE7C8
:1010C00038B50B4B0546044645F8D03BFFF7ECFE20
:1010D00005F081FA284604F0FFF904F17C0004F0E1
:1010E000FBF904F1700004F0F7F9204638BD00BFA9
:1010F000747A050810B50446FFF7E2FF4FF49471C7
:10110000204607F0BBFB204610BDFFF705BF0000DF
:10111000034B10B50446036004F09AF8204610BD56
:101120009079050810B50446FFF7F2FF2821204604
:1011300007F0A4FB204610BD034B10B50446036026
:1011400004F086F8204610BD6079050810B5044605
:10115000FFF7F2FF3421204607F090FB204610BD38
:10116000034B10B50446036004F072F8204610BD2E
:101170007879050810B50446FFF7F2FF38212046BC
:1011800007F07CFB204610BD38B51C4B0D460446CD
:1011900040221968C0F80F1099889B79A0F81310A5
:1011A00002214375284604F0F3F8402220730221FF
:1011B000284604F0F2F8402260730321284604F028
:1011C000E7F8A073284604F083F820B9AF220C4951
:1011D0000C4806F0FDFB002304F18502C4E932232C
:1011E00004F1D90284F8783084F8843084F8D83057
:1011F000C4F81C21C4F8203138BD00BFAC79050803
:101200004F7A05085A7A05082DE9F34104460E463F
:101210001546FFF781FEF28823799A4237D1002DD7
:1012200035D17778012F2ED1F378202B27D1328931
:10123000072A24D104F10F0804F116054046294677
:1012400011F01EFCD0B1D4F81630C4F80F30638B07
:10125000207CE17BA4F8133001EB0021E57C607C6D
:10126000237F01EB00410095A07C2568637501EBAD
:101270000061237D2046627D6D6BA8473D46F37873
:10128000212B08BF0125284602B0BDE8F0810025CA
:10129000F9E710B50446FFF73FFEFFF705FE217B97
:1012A00005F036F804F1850304F17C00C4F8C83079
:1012B0000023C4F8CC3084F8843004F0C2F894F8E9
:1012C00084302BB923682046DB6BBDE810401847FB
:1012D00010BD000070B50446FFF71EFED4F8205183
:1012E0002DB140F2DD120F490F4806F071FB04F1F9
:1012F000D903C4F81C31FFF7D7FD617B04F066FF0A
:1013000084F8D850C4F8200104F1D00004F099F812
:1013100094F8D8302BB9236820469B6BBDE8704009
:10132000184770BD4F7A0508B87905080022C260D9
:101330007047000002232DE9F04143710023044669
:10134000054683609046144B04F17C0645F8703BDB
:10135000284604F069F8304604F066F804F1D00736
:10136000384604F061F8C4F82481FFF79DFD21465A
:10137000FFF752FD0CE0384604F0AEF8304604F0BA
:10138000ABF8284604F0A8F80EF0AEFBF6E7F8E755
:101390002046BDE8F08100BF747A050870B50446A8
:1013A0000D46FFF7B9FD84F87850002D3ED194F832
:1013B000843033B1FFF778FD217B04F081FD84F8A0
:1013C000845004F1850304F17C0600253046C4F8FE
:1013D000C830C4F8CC5004F034F8304604F02AF891
:1013E00028B94FF4A2721449144806F0F1FA94F89F
:1013F000D83033B1FFF758FD217B04F061FD84F84C
:10140000D85004F1D90304F1D005C4F81C310023ED
:101410002846C4F8203104F014F8284604F00AF8ED
:1014200020B94FF4A77204490548DEE704F17000C3
:10143000BDE8704004F005B84F7A0508C679050884
:10144000D779050810B50446FFF766FD0021204650
:10145000BDE81040FFF7A2BF38B50D460446FFF7C0
:101460005BFD042D05D020460021BDE83840FFF784
:1014700095BF38BDF8B5164604460D461F46FFF722
:101480004BFD0423EA88337023799A4225D1697889
:10149000012922D1EA78212A08D0222A0BD0202A39
:1014A0004FF000001BD13070163401E00F34317062
:1014B00007203C60F8BDAB88204613F0010308BF4D
:1014C0001946FFF76BFFAB8803F00103E366AB88B7
:1014D00003F00203A366022333700020EAE703232C
:1014E0003370E7E710B58AB00446FFF705FD68469C
:1014F00003F09EFE0D4B694604F1700000930994C1
:1015000003F0B7FF2046FFF7FFFC094B00216846B8
:101510001A6803F053FE6846FFF7FAFD0AB010BDE3
:101520006846FFF7F5FD0EF0DFFA00BF9079050879
:10153000B479050870B58EB004460E461546FFF71F
:10154000DBFC01A803F074FE114B01A904F17C003F
:10155000019300230C958DF83430CDE90A4603F051
:1015600088FF2046FFF7D0FC0A4B002101A81A682B
:1015700003F024FE04E001A8FFF7DEFD0EF0B4FA4C
:101580009DF8344001A8FFF7D7FD20460EB070BD8E
:1015900060790508B479050810B50446FFF7BCFC6E
:1015A00094F884307BB9D4F8CC3063B1FFF77CFC7D
:1015B000D4F8CC3004F18502217B04F047FE10B151
:1015C000012384F8843010BD2DE9F8431E460446FB
:1015D000894690469DF82070FFF78EFC002333600B
:1015E00094F87830E3B194F88430CBB9D4F8CC5087
:1015F000C5F14005454528BF4546B8F1000F05D067
:101600002A464946D4F8C80011F06CFAD4F8CC3018
:101610002B44C4F8CC30356017B12046FFF7BCFF2F
:101620002046BDE8F843FFF76FBCF0B50446406ABA
:1016300085B0012690F878502DB984F830503546A1
:10164000284605B0F0BD04AB0027D4E90A1243F8E0
:10165000047D0096FFF7B8FF0399E36AA26A5B1A5C
:101660000A44E362A26213B984F83060E8E7606A72
:101670003D46FFF791FFE3E72DE9F0431C4691B0AB
:10168000054689469046FFF737FC002C4FF00006D0
:1016900002A806BF01AC01270027266003F0C8FDA1
:1016A000134B02A905F1D00002938DF83C708DF820
:1016B0003D60CDE90B59CDE90D8403F0DAFE2846F3
:1016C000FFF722FC0B4B314602A81A6803F076FDA7
:1016D00004E002A8FFF744FD0EF006FA9DF83D4035
:1016E00002A8FFF73DFD204611B0BDE8F08300BF22
:1016F00078790508B479050810B5D0F8203104468A
:101700006BB990F8D83053B9FFF7CEFB402304F102
:10171000D902617B04F0FCFC012384F8D83010BDB1
:1017200070B504461E4600230846336094F87830AE
:10173000EBB194F8D830D3B9D4F82051D4F81C11B7
:10174000954228BF15462A4611F0CCF93560D4F8E9
:101750001C31D4F820212B44551BC4F81C31C4F88B
:10176000205125B92046BDE87040FFF7C5BF70BDC8
:1017700037B50446406A90F878502DB984F8355052
:101780000125284603B030BD02AB002243F8042DEA
:10179000D4E90A12FFF7C4FF0199A26A0A44A262BF
:1017A000226B13680B4413600199E36A5B1A94F887
:1017B0003410E36209B9126802B91BB9012384F835
:1017C0003530DEE7606A0025FFF796FFD9E710B5F0
:1017D00004460021FFF7AAFD204610BD10B50446BF
:1017E000FFF7F5FF204610BD10B4D0E900340968BA
:1017F0006210E4075DF8044B01EB020044BF8A5815
:10180000D35818470146043008B5FFF7EDFF08BD6F
:10181000034A0346C26007C983E80700704700BF58
:10182000A079050810B586B004460391684606A95C
:1018300080E80C0001E90C00204603A9FFF7E8FF4F
:10184000204606B010BD37B56C46054684E80C004E
:1018500094E80C00FFF7E6FF284603B030BD000017
:10186000F0B58BB00546FFF757FB06ACFFF71CFB46
:10187000AF7B064600212046FFF7B0FF009403230C
:1018800040223946304604F009FF2046FEF707FEA5
:10189000FFF70AFB214B06462F7B029300232946C4
:1018A0002046039302AB0CCBFFF7CDFF009402233D
:1018B00040223946304604F0F1FE2046FEF7EFFDA7
:1018C000FFF7F2FA164B06466F7B04930023294676
:1018D0002046059304AB0CCBFFF7B5FF0094022321
:1018E00040223946304604F0D9FE06E02046FEF795
:1018F000D6FD0EF0F9F8F9E7F8E72046FEF7CFFD40
:10190000FFF7D2FA4023D5F81C21697B04F000FCD4
:10191000012085F8D8000BB0F0BD00BF9312040879
:10192000D512040808B5FFF76DFF08BD08B5FFF72D
:10193000F9FF08BD6FF01500704700290CBF6FF06C
:10194000180000207047012070476FF015007047A5
:101950006FF015007047112070477047704770474F
:1019600003689B6C1847A0F5A070F9E770477047B3
:101970007047704710B50446012000F027FC94F82A
:10198000780010BDA0F5A070F4E7000038B54FF066
:10199000FF320123FF210B4807F008F90A4D00F040
:1019A00003FC044695F878301BB1012000F00EFCD2
:1019B000F8E700F0F9FB001BC728F6D9BDE838406E
:1019C000FEF746BD08210024501E002407B502ABD7
:1019D000012243F8041D1946FFF7ACFD18B1019828
:1019E00003B05DF804FB4FF0FF30F9E7A0F5947009
:1019F000FFF7ECBF07B5002302A9012201F8013D62
:101A0000FFF73AFE20B19DF8070003B05DF804FB34
:101A10004FF0FF30F9E7A0F59470FFF7EBBF2DE929
:101A2000F8430446884617461E46089DFFF774FA99
:101A3000D4F87092B9F1000F04D02B4632463946E3
:101A40004046C847C4F86082C4F86472C4F868624B
:101A5000C4F86C52BDE8F883B0F5966F03D101214C
:101A6000014807F085B870470821002400687047D6
:101A70000C30704708B5FFF7FBFF0023036008BD7B
:101A8000CB68C3600BB15B681847704738B5054633
:101A9000FFF732FA95F8D8304BB9D5F82041402CF1
:101AA00028BF40242846FFF72FFA204638BD0024DF
:101AB000F8E790F878007047114B03F1780270B5A1
:101AC00003600446C0F8282100F51D7603F1D80212
:101AD00000F52D75E833C0F82C21C0F84031AE4236
:101AE00004D0103D2846FEF7DAFCF8E704F59470C0
:101AF00005F0F8FB2046FFF7E3FA204670BD00BF73
:101B00008C7B0508A0F59470FFF7D6BFA0F5967002
:101B1000FFF7D2BF10B50446FFF7CEFF4FF42E718A
:101B2000204606F0ABFE204610BDA0F59670FFF7EC
:101B3000F1BFA0F59470FFF7EDBF00002DE9F7436A
:101B400004461E46884615460BF0CAFFBDF82C30E9
:101B500004F59477014601932A46BDF828302046C3
:101B600000933346FFF7E6FB0021384605F090FB73
:101B70004FF47A73002504F51D7904F5A870C4F8B4
:101B800048312946204B4E46C4F8445103F17802AF
:101B90002360C4F8282103F1D802E833C4F82C21CB
:101BA0004FF48072C4F8403111F09AF8C4F85052E2
:101BB000C4F85452C4F8585204F52D753046103606
:101BC000FFF705FEB542F9D10023C4F8B432C4F8DA
:101BD0007032B8F1000F13D02046FFF783FC0FE0FE
:101BE0004D4504D0103D2846FEF759FCF8E738462D
:101BF00005F078FB2046FFF763FA0DF075FFF9E773
:101C0000204603B0BDE8F0838C7B0508884238B5D8
:101C1000044606D00D46FEF73DFC20462946FFF758
:101C20002FFF204638BD08B5FFF722FF00680030BF
:101C300018BF012008BD000010B50446FFF7F3FFF0
:101C400028B940F202220649064805F0C1FEE068C4
:101C5000FFF70CFF03462046BDE81040184700BFC1
:101C60006D7B0508787B0508F8B506460025FFF76B
:101C700053F906F51D74D6F8B432AB420AD92046A2
:101C80002746FFF7D0FF103420B138460135FFF763
:101C9000D3FFF0E7F8BD0000044BC36003460A68B9
:101CA00043F8042B002242605A607047D87A050836
:101CB00013B50446019121B9FFF7DCFE204602B0BE
:101CC00010BD01A9FFF7E8FFF8E710B4D0E9003430
:101CD00009686210E4075DF8044B01EB020044BFA1
:101CE0008A58D35818470146043008B5FFF7EDFF6E
:101CF00008BD0000034A0346C26007C983E8070025
:101D0000704700BFCC7A050810B586B00446039131
:101D1000684606A980E80C0001E90C00204603A9EA
:101D2000FFF7E8FF204606B010BD37B56C46054604
:101D300084E80C0094E80C00FFF7E6FF284603B0A7
:101D400030BD00002DE9F04188B00446FFF7D4F81B
:101D5000384B2046C4F87032FFF7D6F8364B04A84B
:101D6000214602930023039302AB0CCBFFF7DDFF68
:101D70002046FFF7C1F8D4F8B402032803D920465F
:101D8000FFF7C2F80AE0431C04EB001004A9C4F8F2
:101D9000B43200F51D70FFF739FFF0E704A8FEF735
:101DA0007EFBBC2006F036FD05460646234B05F1BA
:101DB000400746F8043B3046FFF709FD002138464E
:101DC00006F07CFF05F15408404606F015FF1C4B59
:101DD0004FF48072182128460093002306F0EAFF92
:101DE000184904A8C4F85C52FFF762FF04A928460A
:101DF00007F034F810E0404606F03EFF384606F0A3
:101E000086FF3046FEF74BFBBC21284606F036FD28
:101E10000DF06AFEF2E7F4E704A8FEF740FB204667
:101E2000FEF758FC08B0BDE8F08104A8FEF737FBC8
:101E3000EEE7FAE7591A0408D50604087C9105086C
:101E4000E47A05088D190408A0F5A070FFF77ABFA1
:101E50000368184708B5FFF7FBFF08BD08B5FFF793
:101E600042FF08BD08B5FFF7F9FF08BD37B50F4CB5
:101E70000F4D204606F072FE2A460E49204606F017
:101E800077FA42F2120301220B4CCDE90032002214
:101E90004FF4F85320461146FFF750FE2A460749F3
:101EA000204603B0BDE8304006F062BA08210024A5
:101EB00000000024778B0408501E0024B91A04087F
:101EC00008B50FF0B9FA2DE9F04F027D85B005464F
:101ED0000E46012A40F08E8000214FF0FF3B044661
:101EE0000B465F4694F804C048B2BCF1000F73D1B2
:101EF00094F805C0BCF1000F6ED1B7F1FF3F17BFDA
:101F00000133012338465BB2934201DD1A46834612
:101F10000131023408295DD1002402EB0B03A146F4
:101F20000293CB4502DC029B4B4558DC95F80580BB
:101F300095F804A04FEA281708F00F080AF00F03DD
:101F40005FEA2A1AFAB201926FD05FFA8AF1BAF107
:101F5000090F30460393D4BF3031573100F0AFF84A
:101F6000039B0444092B3046039394BF03F13001D3
:101F700003F1570100F0A3F80444BAF1000F02D1B5
:101F8000039B03B94FB1092F019F3046D4BF3037AF
:101F90005737F9B200F093F80444B8F1090F30460E
:101FA00094BF08F1300108F1570100F088F8B9F149
:101FB000070F044404D03A21304600F080F804446E
:101FC00009F101090235B9F1080FAAD1204605B07F
:101FD000BDE8F08F074685E74FF0FF3098E7CB4527
:101FE000EED1BBF1000FE6D13A21304600F067F8A0
:101FF0000444E0E700F1100700F11309002417F88A
:10200000011B0A22304600F097F880462E21304608
:1020100000F055F8B94540440444F0D10A22E97C67
:10202000304600F089F80444D0E7002B9AD1A9E7A4
:10203000054B102210B504460360017500210430E1
:1020400010F04EFE204610BDA87C050870B5074D67
:102050008374056000259DF8103005754560856026
:10206000C56001744274C37470BD00BFA87C0508CC
:1020700007B501210648FFF7DBFF002305481A4694
:1020800019460093FFF7E2FF03B05DF804FB00BFC1
:102090001C2100243421002470B5044608460D4656
:1020A00011F0EEF923680246294620465B68BDE838
:1020B0007040184709B1FFF7EFBF08467047036843
:1020C0001B6818470149FFF7E7BF00BF8E9A050854
:1020D00038B50546FFF7EEFF04462846FFF7F2FF46
:1020E000204438BD70B58AB00D460023012A98BF40
:1020F0000A220AA901F8043DB5FBF2F402FB1456CA
:102100002546F3B2092E94BF30333733DBB201F8E2
:10211000013D002CF0D1FFF7CDFF0AB070BD10B427
:102120002AB90368C9B25DF8044B1B681847D2B2DC
:102130005DF8044BFFF7D6BFFFF7F1BF10B500F015
:1021400047F80A4CFEF756F9FEF7AEFEFEF7A3FE7F
:102150004FF4E1310648FFF7F5FDFEF709F9FEF708
:10216000F5F8002CFBD0AFF30080F8E7000000008A
:10217000501E002410B50446FEF73AF984423BBFD6
:102180002401024B4FF0FF30185F10BD0400002403
:1021900010B5044602F068FE204610BD10B5044696
:1021A00002F062FE204610BD07B50749684602F0FE
:1021B00098FE4FF47A720023DDE900010DF0E6FF8E
:1021C00003B05DF804FB00BF5021002406F0A6BD5B
:1021D00008B5044802F052FE0348BDE8084002F08A
:1021E0004DBE00BF682100245021002406F0A8BD88
:1021F00038B50A4C0A4D204602F0B0FE2046094C84
:102200002A46094906F0B4F8204602F0B2FE2A46F2
:1022100020460649BDE8384006F0AAB868210024E7
:1022200000000024502100249D210408912104086D
:102230002DE9F04104460E46FEF7DAF884423CD21E
:102240001F4D2701EA19D06810B11C2106F016FBBA
:102250002046FFF78FFF80461C2006F0DBFA04467D
:1022600000211C2210F03CFD4146204604F095FB65
:10227000EB19012EDC6010D006D3022E12D02046BE
:1022800002F04FFB022103E0204602F04AFB00214E
:102290002046BDE8F04102F051BB2046BDE8F041C8
:1022A00002F032BB204602F03CFB0121F0E71C218A
:1022B000204606F0E3FA0DF017FCBDE8F08100BF00
:1022C000040000242DE9F34106460F46FEF790F87E
:1022D00086422AD21B4D4FEA061805EB0802D46845
:1022E000ACB93046FFF746FF06461C2006F092FACE
:1022F00004461C22002110F0F3FC00970023012269
:102300003146204604F065FB05EB0803DC600E4B0C
:102310000E491A46D3F894008842FBD123683FB196
:10232000A1680B604FF44073536102B0BDE8F081C7
:10233000E1681B04F5E71C21204606F09FFA0DF02A
:10234000D3FB00BF04000024006402580003008097
:102350001EF0040F0CBFEFF30880EFF309808169D2
:1023600011F8021C002932D101B590E80F10E047A6
:10237000BDE800508CE80300244B93E8060091422E
:1023800008BF70471A6041B91EF0100F10D1204BE2
:10239000186820F0010018600AE02CE9F00F1EF028
:1023A000100F08BF2CED108A81F822E0C1F838C068
:1023B000906B92F8221061F0FF0E1EF0100F08BF14
:1023C000B0EC108AB0E8F00F80F309887047114A2A
:1023D00013689942FAD801B552F821C00FC8E047F6
:1023E000BDE80050CCF80000704701B501F030FBAB
:1023F000BDE80140EFF3098CBEE701B501F0ECFA4E
:10240000BDE80140EFF3098CB6E700008806002420
:1024100034EF00E0747D0508014608B530B96FF06F
:10242000030000F0EEF96FF0030008BD132001F087
:10243000C9FE30B94FF0FF3000F0E3F94FF0FF3044
:10244000F3E70020F1E7000008B5EFF305832BB9AF
:10245000EFF3108313B9EFF3118333B16FF005007D
:1024600000F0CFF96FF0050008BDDFF808C000DF0D
:10247000FAE700BF19240408EFF310832BB9EFF338
:102480001180003818BF01207047012070470000FC
:1024900038B50546A0B1846802686CB114F0030336
:1024A00002D1C1680F2926D800246FF0080100204E
:1024B00002F0F0F8204638BDC368002BF4D1154671
:1024C000104BD3F8900078B100F0FBFB0446A0B1AC
:1024D0000123F322A3700023656022700A4AC4E935
:1024E0000233084B5A66E5E701221021D3F8800039
:1024F00000F06EFBEAE71546EBE76FF0040102F02F
:10250000C9F8D7E77406002475250408930710B5A9
:1025100002F0010422D400F10C0384B153E8000F4F
:1025200000EA01028A4203D0BFF32F8F002005E0AA
:1025300020EA010243E8002404B1EFE710BD53E8AC
:10254000000F084203D1BFF32F8F002005E020EADF
:10255000010243E8002404B1F1E7EFE7C06801EAB3
:1025600000031CB1994218BF0020E7E7002B08BF09
:102570000020E3E7F8B50546846804B9F8BD94F88F
:1025800023202846616AA768FFF7C0FF064638B1D6
:10259000204601F0D6FB00223146204601F06AFDBC
:1025A0003C46EAE7F8B50D4617461E46044620B1FC
:1025B0000378F32B01D1002907DA20466FF00301DD
:1025C00002F068F86FF00300F8BDFFF79FFF0028E6
:1025D000FAD186B13146432001F0F4FD40B1074BFA
:1025E00020465E69314601F091FB756286F82370E2
:1025F0006FF00100E8E76FF00200E5E774060024E1
:1026000070B5054610B10378F32B07D028466FF05C
:10261000030102F03FF86FF0030070BD836863B1FF
:10262000284601F085FB00226FF0020101F022FD37
:10263000A8680028F4D101F003FCAB78002613F061
:1026400001032E700FD0094B2946D3F8904024B1D6
:10265000204600F050FB3046DFE7D3F8800000F062
:10266000ECFA2046D9E71846D7E700BF74060024E5
:102670002DE9F041064620B10378F32B01D1002962
:1026800009DA6FF003056FF00301304602F002F83B
:102690002846BDE8F08100F10C0353E8002F42EA20
:1026A000010543E8005000B1F7E7B4681CB92046C3
:1026B00001F0C6FBECE794F823203046616AD4F8B9
:1026C0000880FFF723FF074678B194F823309B0773
:1026D00056BF656A054620EA0505204601F031FB34
:1026E00000223946204601F0C5FC4446DEE70000E2
:1026F000024608B5EFF3058333B100206FF0050102
:1027000001F0C8FF002008BDFFF7B6FE0028F4D195
:102710001046DFF808C000DFF5E700BF9124040889
:10272000024638B5EFF305834BB192B96FF003045D
:102730006FF00301104601F0ADFF204638BDFFF7F2
:102740009BFE0028F1D11046DFF82CC000DF0446C4
:10275000F3E71378F32BE9D10029E7DB02F10C034F
:1027600053E8000F40EA010443E8004505B1F7E7EC
:10277000104601F0B5F9E0E77126040838B50446C3
:102780001D46EFF3058343B18CB920466FF003017A
:1027900001F080FF6FF0030038BDFFF76DFE0028E9
:1027A000F2D120462B46DFF824C000DFF4E723787F
:1027B000F32BEAD1002DE8D10029E6DB2046FFF714
:1027C000A5FE002808BF6FF00200E5E7A525040874
:1027D000024608B5EFF305833BB110466FF00501E3
:1027E00001F058FF6FF0050008BDFFF745FE002817
:1027F000F3D11046DFF804C000DFF5E70126040836
:1028000070477047EFF310832BB9EFF31180003856
:1028100018BF01207047012070470000064BDA6A9C
:102820003AB1D0695B6C1BB11B69984228BF18464E
:1028300070474FF0FF30F5E77406002470B5464C42
:10284000237A012B00F0858033B14FF0FF3001F087
:1028500015FF4FF0FF3070BD404DEB68E3652B8AEC
:10286000D5E90B61A4F85430AB683046236400F01E
:1028700097F908B1C4F88060D5E90561304600F0E9
:102880008FF908B9D4F880606667D5E907613046EA
:1028900000F086F908B9D4F88060A667D5E9096127
:1028A000304600F07DF908B9D4F88060E6676E6BB9
:1028B0003EB131683046D6E9022300F0E1F9C4F8B0
:1028C0008460AE6B3EB131683046D6E9022300F039
:1028D000D7F9C4F88860EE6B3EB131683046D6E96E
:1028E000022300F0CDF9C4F88C602E6C3EB1316843
:1028F0003046D6E9022300F0C3F9C4F890606E6C4C
:102900003EB131683046D6E9022300F0B9F9C4F887
:102910009460AE6C3EB131683046D6E9022300F0D7
:10292000AFF9C4F89860EE6C3EB131683046D6E934
:10293000022300F0A5F9C4F89C602D6D3DB1296813
:102940002846D5E9022300F09BF9C4F8A0500123E2
:10295000237200207FE700BF74060024047D050871
:1029600070B5254D2B7A012B07D06FF006004FF084
:10297000FF3401F083FE204670BD01F057FC10B912
:102980004FF0FF30F3E71D4AFF231D4E82F822303F
:1029900092F82230D26863F0FF031A49C2F3022290
:1029A0007068DB4314BFB3FA83F32023C3F1200321
:1029B000934298BF531CFE2202FA03F30F4ADBB284
:1029C000D37701F0B7FE04460028D9D101F00AFF01
:1029D000286101F0F3FE0C4801F0AAF901F028FA91
:1029E0003368DB074CBF0223032383F31488BFF350
:1029F0006F8F02232B72BEE77406002400ED00E007
:102A0000047D0508FB2304089006002410B50F4C34
:102A1000237A022B13D101F0D9FE01236372BFF395
:102A20004F8F0B4A5168C90003D54FF000615160C8
:102A3000A37204232372BDE81040FFF7EFBE6FF0CE
:102A4000070001F01BFE002010BD00BF740600242B
:102A500000ED00E038B51E4C0546237A042B35D135
:102A6000FFF7DCFEE26AA842034694BF00F1FF33A1
:102A70002B4612B1D069C01AD061626C12B11069D4
:102A8000C01A1061E06803440544E360E368AB42A8
:102A900013D102230020237201F0D2F900236372C4
:102AA000BFF34F8FA27A22B1A3724FF08052094B2D
:102AB0005A60BDE8384001F081BE0133E36001F0A7
:102AC0007DF9236D002BE1D09847DFE738BD00BFCB
:102AD0007406002400ED00E0704738B504460D464A
:102AE000FFF78EFE29462046BDE8384001F088BD3C
:102AF00008B5FFF7F1FFEFF3058333B16FF0050081
:102B000001F0BCFD6FF0050008BDFFF77BFE00285B
:102B1000F4D1DFF808C000DFF6E700BF3D28040865
:102B200008B5EFF3058333B16FF0050001F0A6FDA2
:102B30006FF0050008BDFFF765FE0028F4D1DFF84F
:102B400008C000DFF6E700BF6129040808B5EFF30D
:102B500005832BB16FF0050001F090FD002008BD4A
:102B6000FFF750FE0028F5D1DFF804C000DFF6E7DC
:102B70000D2A0408024608B5EFF305832BB16FF068
:102B80000500BDE8084001F079BDFFF73BFE0028D5
:102B9000F5D11046DFF804C000DF08BD552A04084F
:102BA00010B598B140EA010313F007030ED11729BD
:102BB0000AD90160083910220C18426084600B5059
:102BC00081684A60C3600123184610BD0023FBE7FB
:102BD000F0B580B399B132F003032CD10F3100F17D
:102BE000080521F007072B462D685C68E91A24F0D8
:102BF0000304091B8F4204D929680029F3D1084630
:102C0000F0BD46683A4304683E444660204450F8AC
:102C1000041C08388E4288BF4660586818B903F112
:102C200008015A60EBE720F0030019181D504A60B4
:102C300019600831E3E70021E1E730B590B1D9B17F
:102C4000A1F1080500F108040022AC420BD151F8B3
:102C5000043C23F0030443681B1B436042B941F862
:102C6000042C012030BD236822463BB11C46ECE712
:102C700051F8083C1360F4E70846F3E71846F1E71B
:102C800030B5C0B189B1C2B1CBB100240160C3601D
:102C90004361C0E9014202FB01F41D1905611846B8
:102CA000013904D1A21A99500121084630BD851876
:102CB00005602846F4E70146F7E71146F5E71946AF
:102CC000F3E7034610B5A8B100F1140252E8000F73
:102CD00010B9BFF32F8F04E0016842E8001404B17B
:102CE000F4E738B1043353E8002F511C43E80014D3
:102CF00004B1F8E710BD30B5F0B1C3688B421BD802
:102D000003698B4218D900F114031A680A60BFF3F3
:102D10005F8F53E8002F0C689442F6D143E800150A
:102D200005B1F2E7043050E8003F5A1E40E80021A8
:102D300001B1F8E7002030BD6FF00300FBE7EFF3CF
:102D400010832BB9EFF31180003818BF01207047B2
:102D500001207047036B30B5E3B1CD780024DA78F9
:102D6000AA420FD31A46C1E901248AB19160A4B1E5
:102D70006160283050E8003F5A1C40E8002101B152
:102D8000F8E730BD5A681C46002AECD01346E6E747
:102D9000C162ECE7C1E90133C1620163E9E7D1E94E
:102DA000013223B19A608A681AB153607047C262D7
:102DB000F9E703637047F8B5877804468FB3C568B1
:102DC0000027014605F10C062846FFF7E8FF2770AB
:102DD0003046FFF790FFAB68002B48D03046FFF736
:102DE00070FF0446002842D0284600F0A1FF0646A6
:102DF0003A46394601F03EF9304601F00FF86A6A6A
:102E00000646816804F10C000FF06CFEF923A770F0
:102E10002370F368E37021462846BDE8F840FFF7C9
:102E200099BF8568AB68002BF5D05B78832BF2D116
:102E3000284600F07DFF06463A46394601F01AF969
:102E4000304600F0EBFF06466A6A04F10C01806828
:102E50000FF048FEF3680BB1E2781A7000232146A8
:102E600005F10C002370BDE8F840FFF744BFF8BD42
:102E70002DE9F0410C4617469846054618B10378EF
:102E8000FA2B00D141B928466FF0030101F018FC7C
:102E90006FF00300BDE8F0818368C3B15B78832BDA
:102EA00015D100F045FF06460122002101F0E2F8AD
:102EB000304600F0B3FF06466A6A214680680FF08C
:102EC00011FEF0680028E5D007700020E2E705F168
:102ED0000C00FFF7F6FE064670B121466A6A0C3018
:102EE00000240FF0FFFDF923314628463370B470FB
:102EF000F770FFF72FFFE8E7B8F1000F10D0414659
:102F0000932001F05FF940B1074B2846596900F062
:102F1000FDFEEFF30983C3E902476FF00100B9E753
:102F20006FF00200B6E700BF740600242DE9F84FE9
:102F30008846074638B131B1B0FA80F3B1FA81F171
:102F40000B441F2B06DC6FF003010020002401F06E
:102F5000B7FB70E008F1030626F003060C3606FB0B
:102F600000F9F2B194683CB1A30702D1D368332BC6
:102F700005D86FF00801E8E7D368002BF9D1D2F843
:102F800000A0D2E904533DB115F0030B01D19945DE
:102F900054D96FF00901D8E7002BFAD11CB19B4638
:102FA0000CE092461546274BD3F8A000D8B1FFF7A6
:102FB00088FE0446A0B14FF0010B35BB214B002227
:102FC0004946D86FFFF704FE0546C0B9BBF1000FB4
:102FD00006D01C4B2146D3F8A00058B1FFF78BFE5A
:102FE0006FF00401B1E701223421D3F88000FFF72C
:102FF000EFFDDEE7D3F88000FFF71FFEF0E74BF0B0
:10300000020B4A4600210FF06BFEFA233246394686
:1030100004F10C002370002384F802B0A360C4F80C
:1030200004A0C4E90983C4E90B332B46FFF728FE4B
:10303000044B054A1A672046BDE8F88F002CE4D1FE
:10304000B1E700BF74060024B72D040800F128037F
:1030500010B553E8002F12B9BFF32F8F04E0511EB3
:1030600043E8001404B1F4E70AB9002010BDC06AB7
:1030700001230028F9D0821CD2E84F1FC2E8443F48
:1030800004B1F9E711F0FF0FF0D08068F1E700001C
:103090002DE9F0410F4615469846044618B10378CD
:1030A000FA2B00D141B920466FF0030101F008FB73
:1030B0006FF00300BDE8F081FFF7C8FF0646002867
:1030C0003AD001462046FFF76AFE626A06F10C011B
:1030D00038460FF007FD0DB1F3782B70002504F191
:1030E0000C07314638463570FFF705FEA3680BB96B
:1030F0000020DFE73846FFF7E4FD06460028F7D05A
:10310000204600F015FE07462946012200F0B2FFD6
:10311000384600F083FE626A0746816806F10C00BB
:103120000FF0E0FCF923B570314633702046FB68A0
:10313000F370FFF70FFEDBE7B8F1000F10D0414648
:10314000832001F03FF840B1074B2046596900F059
:10315000DDFDEFF30983C3E902756FF00100A9E714
:103160006FF00200A6E700BF7406002408B5064B06
:1031700008219A6ED86EFFF7D9FE044BD864B0FAD6
:1031800080F04009404208BD047D05087406002413
:103190002DE9F04106460F4690461C46EFF30583A5
:1031A0004BB196B930466FF0030101F089FA6FF028
:1031B0000300BDE8F081FFF7C2FD0028F1D13046E1
:1031C0002346DFF848C000DFF3E73378FA2BE9D174
:1031D000002FE7D0002CE5D106F10C00FFF771FDC0
:1031E000054680B1726A39460C300FF07BFCF9233A
:1031F0002846AC702B7085F80380C5E9017600F095
:103200006FFC2046D5E76FF00200D2E7712E04086C
:10321000F8B504460F4616461D46EFF3058343B145
:103220008CB920466FF0030101F04AFA6FF00300F9
:10323000F8BDFFF784FD0028F2D120462B46DFF8C9
:1032400044C000DFF4E72378FA2BEAD1002FE8D05E
:10325000002DE6D12046FFF7F9FE054670B100F1DA
:103260000C01626A38460FF03DFC0EB1EB7833700A
:103270002846EC6000F034FC0020D9E76FF0020033
:10328000D6E700BF91300408EFF310832BB9EFF3BA
:103290001180003818BF01207047012070470000DE
:1032A00070B5A8B38468D0E900566CB114F003037C
:1032B00002D1C2681B2A1AD800246FF0080100202E
:1032C00001F0EEF9204670BDC368002BF4D1124B1B
:1032D000D3F8940030B901221C21D3F88000FFF705
:1032E00077FC01E0FFF7EDFC044660B10123F52215
:1032F000A3700023E670227065602376C4E9023370
:10330000C4E90433DEE76FF0040101F0C9F9D9E73D
:1033100005460646DBE700BF74060024284B70B55F
:103320005D6904460E4635B96FF0070101F0B8F942
:103330004FF0FF3070BD10B10378F52B07D0204659
:103340006FF0030101F0ACF96FF00300F2E7037EC8
:1033500053B9C0E90353EB6A436103B11861012318
:10336000EC6200202376E5E7C278D1070DD5C1686D
:10337000A9420AD1FF2B06D16FF00F0101F090F99D
:103380006FF00200D6E70133EBE7002EF8D0930789
:103390000AD5E06895F9203090F920209A4203DAA6
:1033A00080F8203000F0D6FC3146532000F00AFFB0
:1033B00018B12946204600F0A9FC6FF00100B9E7DA
:1033C000740600242E4B5A6970B5044632B96FF06A
:1033D000070101F065F94FF0FF3070BD10B10378BF
:1033E000F52B07D020466FF0030101F059F96FF07B
:1033F0000300F2E7037E33B96FF00E0101F050F9DC
:103400006FF00200E9E7C168914202D06FF00D0150
:10341000F4E7013BDBB2037613BB43690BB10169EF
:1034200019612169F1B14B6192F92130D56ADDB999
:1034300082F82030A36883B1204600F079FC06466C
:103440002A46294600F016FEF36AC4E90365636163
:1034500003B11C610123F4622376002000F0F0FC2C
:103460000020BAE7D362DFE7E978890706D5A968C3
:1034700021B191F920108B42B8BF0B466D69D6E798
:103480007406002470B5044610B10378F52B07D0FC
:1034900020466FF0030101F003F96FF0030070BDE7
:1034A000037EBBB16369C0680BB122691A612269EE
:1034B00002B3536190F92120C36AEBB990F920302F
:1034C000934203D080F8202000F044FCA068F8B9B3
:1034D00000F0B6FCA078002610F001002670DED0C7
:1034E000134B2146D3F89450DDB12846FFF703FC77
:1034F0003046D4E7C362DDE7D978890706D59968F5
:1035000021B191F920108A42B8BF0A465B69D4E71D
:10351000204600F00DFC00226FF0020100F0AAFD31
:10352000D4E7D3F88000FFF788FB2846B7E700BF51
:10353000740600242DE9F0410446002601270CB949
:10354000BDE8F081E378D4F814801B0712D5A36896
:1035500026767BB1204600F0EBFB002205461146A3
:1035600000F088FDEB6AC4E90356636103B11C6196
:10357000EC6227764446E2E710B4C3789B071DD57A
:10358000C06890F92120C36ADC78A40709D59C683B
:103590008C4208BF8C6824B194F92040A242B8BF85
:1035A00022465B69002BEFD190F92030934205D081
:1035B00080F820205DF8044B00F0CCBB5DF8044B94
:1035C00070470000024608B5EFF3058333B10020D1
:1035D0006FF0050101F064F8002008BDFFF754FE0C
:1035E0000028F4D11046DFF808C000DFF5E700BF7F
:1035F000A1320408024608B5EFF305833BB110463B
:103600006FF0050101F04CF86FF0050008BDFFF701
:103610003BFE0028F3D11046DFF804C000DFF5E7D9
:103620001D330408024608B5EFF305833BB110468D
:103630006FF0050101F034F86FF0050008BDFFF7E9
:1036400023FE0028F3D11046DFF804C000DFF5E7C1
:10365000C5330408024608B5EFF305833BB11046B5
:103660006FF0050101F01CF86FF0050008BDFFF7D1
:103670000BFE0028F3D11046DFF804C000DFF5E7A9
:1036800085340408EFF310832BB9EFF31180003871
:1036900018BF01207047012070470C30D0E85F3F11
:1036A00013B9BFF32F8F04E05A1EC0E8512F01B1A8
:1036B000F4E798B2003818BF0120704730B500F128
:1036C0000C02C189D2E85F3F994202D8BFF32F8F25
:1036D00004E05C1CC2E8554F05B1F3E7C0899BB21A
:1036E000984294BF0020012030BD0000F8B5154677
:1036F0004FF6FE73421E06460F469A4201D8884294
:1037000007D26FF003010024002000F0CFFF204615
:10371000F8BD7DB1AC682A6844B114F0030302D14E
:10372000E9680F2922D86FF00801ECE7EB68002B5D
:10373000F9D11546114BD3F8980080B1FFF7C1FAC3
:103740000446A8B10123F622A3700023656022700D
:10375000A3600B4A094BA781E6819A66D7E701224D
:103760001021D3F88000FFF733FAE9E71546EAE7BE
:103770006FF0040100F09AFFC9E700BF740600244F
:1037800085370408836810B504465BB1FFF785FFF1
:1037900040B1204600F0CCFA0022BDE810401146AE
:1037A00000F068BC10BD38B5054610B10378F62BA3
:1037B00007D028466FF0030100F078FF6FF0030098
:1037C00038BD84683CB100F0B3FA0122002100F05A
:1037D00051FC0020F4E7FFF771FF38B928466FF07D
:1037E000100100F063FF6FF00200E9E72046E7E711
:1037F00038B50D46044610B10378F62B07D02046A5
:103800006FF0030100F052FF6FF0030038BDFFF7C7
:1038100044FF68B975B12946632000F0D3FC20B19C
:10382000064B2046596900F071FA6FF00100EDE790
:103830000020EBE76FF00200E8E700BF7406002409
:1038400070B5054610B10378F62B07D028466FF007
:10385000030100F02BFF6FF0030070BD836863B1BC
:10386000284600F065FA00226FF0020100F002FC29
:10387000A8680028F4D100F0E3FAAB78002613F032
:1038800001032E700FD0094B2946D3F8984024B17C
:103890002046FFF730FA3046DFE7D3F88000FFF725
:1038A000CCF92046D9E71846D7E700BF74060024B4
:1038B00010B50446EFF3058333B100206FF0050126
:1038C00000F0F4FE002010BDFFF7DCFE0028F4D16C
:1038D0002046DFF808C000DFF5E700BFED3604083A
:1038E000024608B5EFF3058343B182B910466FF085
:1038F000030100F0DBFE6FF0030008BDFFF7C2FE1E
:103900000028F2D11046DFF824C000DFF5E7137875
:10391000F62BEBD10029E9D11046FFF7BEFE0028B7
:1039200014BF00206FF00200E7E700BFF137040882
:1039300010B50446EFF3058343B184B920466FF018
:10394000030100F0B3FE6FF0030010BDFFF79AFE15
:103950000028F2D12046DFF830C000DFF5E72378F9
:10396000F62BEBD12046FFF7A9FE20B1204600F050
:10397000B7F80020E9E720466FF0100100F096FE4E
:103980006FF00200E1E700BFA7370408024608B560
:10399000EFF305833BB110466FF0050100F086FEA2
:1039A0006FF0050008BDFFF76DFE0028F3D110464B
:1039B000DFF804C000DFF5E74138040810B5D0E8AF
:1039C0005F3F5A1C914200D80022C0E8542F04B136
:1039D000F5E798B210BD000038B51C4C00F0FCFEB5
:1039E000E3680133E36000F0E9F9002000F028FA11
:1039F000236D03B19847226C32B3A369E16B9942FE
:103A000003D0D969E36301B9DA61DA69C2B9237A0B
:103A1000022B19D1656ABDB1E36B95F9202093F9AA
:103A200020309A4210D1284600F08BF9E06B00F06C
:103A3000A3F9284600F0FCF9236CE563EB6103E091
:103A4000013ADA61002AE2D038BD00BF74060024D2
:103A500070B5224C04F1560504F15A06B4F854101E
:103A6000D5E85F3F13B9BFF32F8F04E05A1EC5E8B6
:103A7000502F00B1F4E79BB25BB33046FFF79EFFD7
:103A8000E36D53F8200020B30378F13B082BE5D811
:103A900001A252F823F000BFBD3A04085D3A0408C1
:103AA000C33A04085D3A04085D3A0408C73A0408BA
:103AB000CB3A04085D3A0408CF3A0408236E9847CD
:103AC000CCE7636EFBE7A36EF9E7E36EF7E7236FDE
:103AD000F5E70020BDE8704000F0B2B9740600249C
:103AE00070B5164C0546B4F8541004F15602D2E8ED
:103AF0005F3F994202D8BFF32F8F04E0581CC2E801
:103B0000560F06B1F3E79BB2994205D82946022029
:103B1000BDE87040FEF7E1BF04F15800FFF74EFF2B
:103B2000E36D43F82050637A23B9054B4FF0805280
:103B30005A6070BD0123A372FBE700BF7406002426
:103B400000ED00E0EFF310832BB9EFF311800038A4
:103B500018BF01207047012070470378F12B00D077
:103B60007047C068F9E7000010B5C469621CD0E96D
:103B700004310CD103B1596142691AB113610023B8
:103B8000436101E0074A13630023C36110BD1BB109
:103B9000DA6959612244DA614269002AEED1014AA8
:103BA000D362F1E77406002401230A4A90F9201039
:103BB00043701C32936810B51BB193F920408C42BE
:103BC00005DCC0E90232906003B1D86010BD1A462E
:103BD0009B68F1E774060024014B5869704700BFE9
:103BE0007406002408B500F071FDDFF810C000DF96
:103BF0004FF0FF31002000F047FDFEE7DD400408F4
:103C0000930710B502F0010422D400F1280384B117
:103C100053E8000F00EA01028A4203D0BFF32F8F5E
:103C2000002005E020EA010243E8002404B1EFE7A8
:103C300010BD53E8000F084203D1BFF32F8F0020BF
:103C400005E020EA010243E8002404B1F1E7EFE7D0
:103C5000806A01EA00031CB1994218BF0020E7E71F
:103C6000002B08BF0020E3E7084A0021136B10B5C2
:103C70003BB94FF0FF34C0E90431C46121B10861A0
:103C800010BD19461B69F3E71063F9E774060024B9
:103C9000002310B50380044683789A0708D513F0F3
:103CA000100F016B0E4B0FD0D3F88400FFF723F8F1
:103CB000A378DB0712D50A4B2146D3F8880038B128
:103CC000BDE81040FFF717B8586FFEF7B6FFEFE7F3
:103CD000D3F88000BDE81040FEF7AFBF10BD00BFB5
:103CE00074060024C2780346D20701D4FFF7D0BF80
:103CF000042242700022C260034A516B816001B10C
:103D0000C8605363704700BF7406002491F92020F7
:103D1000836810B51BB193F92040944205DAC1E9DC
:103D20000230816003B1D96010BD18469B68F1E78D
:103D300083689A68826002B1D06000221846DA6017
:103D40007047C2682AB18368936003B1DA600023C8
:103D5000C360704710B50146044664B12378F12B67
:103D600007D00846FFF7EDFF2046BDE81040FFF7FB
:103D7000CDBFE468F1E710BD01230146437001485F
:103D8000FFF7C4BF9006002470B50B4D2E7A022EAB
:103D900010D16C6A74B1696994F9202091F92030CE
:103DA0009A4207D12046FFF7CCFF0846FFF7E4FF11
:103DB0006670AC61002070BD7406002438B5164DE5
:103DC000EC6A44B3E369013BE36123BB6378732B83
:103DD00006D009D8532B0BD003F0DF03432B0DD1B2
:103DE0002046FFF7BAFE09E003F0EF03832BF6E766
:103DF0002046FFF7B2FE2146FFF7BEFB2046FFF745
:103E0000A0FFFFF7B9FF246924B1E369002BDDD0DF
:103E100000236361EC6238BD7406002490F8223000
:103E2000826B13F0100F0CBF6020202010447047ED
:103E300002234370014B9861704700BF7406002451
:103E400070B5124D04462E7A696990B9022E0FD1D1
:103E50006C6A6CB194F9202091F920309A4207DD08
:103E60002046FFF76EFF0846FFF79EFE6670AC61C6
:103E700070BD022E05D190F9202091F920309A4290
:103E8000F1DC2046BDE87040FFF776BF74060024E1
:103E90002DE9F04F85B08146029128B96FF00301FA
:103EA000002400F0F1FBBCE0002A45D0966846B142
:103EB000B40702D1D368432B06D86FF00801002065
:103EC000EEE7D368002BF8D19769D2E904453CB1FD
:103ED000600702D1002D40F0B2806FF00A01EEE7DA
:103EE0002FB17B1E372B03D96FF00B01E7E71827A3
:103EF000002D40F0A880D2E900A301934EBB574BA0
:103F0000D3F88800F0B1FEF7DCFE064600283AD070
:103F10004FF00108002C44D1DFF840B1E5B9504A18
:103F2000DBF88400556DB8B1FEF7CBFE0246E0B178
:103F300048F01008344623E09246144618271546E8
:103F40000192DCE701224421D3F88000FEF740FE15
:103F5000DBE74FF00008DDE722462946DBF8740076
:103F6000FEF736FE02460028E4D1B8F1000F16D065
:103F7000DBF8882052B110463146FEF7BCFE002225
:103F800048F002087CB96FF0040198E73146DBF88D
:103F900080000392FEF751FE039A1446F0E7424672
:103FA000EEE72246344640F2F1137FB2FD2184F859
:103FB00002802380019BC4F804A0E370002384F8EE
:103FC000207084F8217061846563C4E90233C4E918
:103FD0000433C4E90633C4E90933C4E90B32A5F15B
:103FE00040031344C4E90E391E4B13601C4B1B687D
:103FF0005B071AD4A36B00201A4603F1340143F87F
:10400000040B9942FBD1184B2046C2E90D394FF001
:104010008073D363029B1362104B144A1A66FFF736
:104020000FFF204605B0BDE8F08FAD084FF0CC3350
:10403000113D002DDED0013D42F8043FF9E7002F8D
:104040007FF44FAF182769077FF447AFA5F1480108
:10405000074B99427FF64FAF3FE700BF740600243D
:10406000047D0508A52E5AE2E53B040899400408A2
:10407000B7FFFF7F38B504461546FFF7CFFE016056
:104080002046FFF771FD1DB1BDE83840FFF7D8BEEF
:10409000BDE83840FFF770BE10B543780446332BB7
:1040A0000CD1416A90F82320FFF7AAFD014628B100
:1040B00020460022BDE81040FFF7DCBF10BD10B560
:1040C0000446806918B100221146FFF7D3FF6378D8
:1040D000232B02BFA36800229A6110BD70B50F4C5C
:1040E000267A022E18D1636AB3B16569E86AFFF7D0
:1040F00021FA2846FFF7E3FF04F11C00FFF718FE42
:104100004670A061EFF30983AB6300232846636127
:10411000BDE87040FFF7E6BD70BD00BF7406002427
:1041200010B5044610B10378F12B07D020466FF08C
:10413000030100F0A9FA6FF0030010BD437803F00B
:104140000F03022B1ED0032B2BD0012B2ED1FFF7F8
:10415000F8FDE06AFFF7EEF92046FFF7B0FF61785F
:10416000022926D11548FFF7E3FD154B41709861F0
:10417000EFF30982A26300225A612046FFF7B2FDE5
:104180000020DAE70E4B1A7A022A02D15B6A002B72
:10419000DFD16FF00201204600F076FA6FF00200E6
:1041A000CBE7FFF7CEFDFFF7DFFCD2E76FF00201B0
:1041B000F2E70020FFF744FEDFE700BF900600248F
:1041C0007406002438B5174C0246237A022B27D1F7
:1041D000606A60B160694B1C427009D1FFF744FD11
:1041E0001148FFF7A5FD02234370A061012038BDEF
:1041F000E36A002213B1DD69A9420BD2C161C0E9B3
:1042000004325AB11061002BEAD0DA695861511AB0
:10421000D961E5E71A46491B1B69EBE7E062F2E763
:104220000020E4E7740600249006002438B50D4C05
:1042300000210D48A26DFFF72BFE0C4D636EA862A6
:104240005BB1984758B9E26DE96C206EFFF720FE2C
:10425000A864003818BF012038BD0120FCE7002009
:10426000FAE700BF047D0508F94504087406002438
:1042700010B50446EFF3058333B100206FF005015C
:1042800000F002FA002010BDFFF75CFC0028F4D11A
:104290002046DFF808C000DFF5E700BF913E0408C4
:1042A00008B5EFF3058313B1054B586908BDFFF757
:1042B00049FC0028F8D1DFF80CC000DFF6E700BFAA
:1042C00074060024D93B040808B5EFF305833BB11D
:1042D00000206FF0050100F0D7F96FF0050008BD70
:1042E000FFF730FC0028F3D1DFF804C000DFF6E769
:1042F000893D040810B5044600F0F4F9EFF3058396
:104300003BB120466FF0050100F0BEF96FF00500EB
:1043100010BDFFF717FC0028F3D12046DFF804C0DA
:1043200000DFF5E7214104080C4A30B5536C002446
:1043300013B11D698D420AD90161C0E902431BB165
:104340001D699860691A19612CB1E06030BD1C4686
:10435000491BDB68ECE75064F8E700BF74060024F3
:104360002DE9F041184D6C6C54B3236901276E6937
:10437000013B2361236913BBE3680BB1A2689A6018
:104380006B64002304F11801E86C1A46FEF700FF85
:1043900058B121460320D5E905836B61FEF79DFBEB
:1043A0006B6913B9B04508BF0026E378012B09D12A
:1043B00061692046FFF7B8FF6C6C002CDAD16E61A2
:1043C000BDE8F0816770F7E77406002408B5FEF7D2
:1043D000CDFE18B9034B044A1A6508BD4FF0FF30F3
:1043E000FBE700BF7406002461430408044607B5D8
:1043F0004FF0FF33002269462046FEF709FF0028F0
:10440000F6D1DDE900309847F2E7000008B5094A27
:10441000094B1A60094B9B1A094A1360094A0A4B57
:104420001A600A4B9B1A0A4A136000F051F800F018
:1044300083F800BF00FC0724B429002400000824EE
:10444000B0290024B8B900240C2D002400FC072456
:10445000082D002438B50E480B250E4B1C24456052
:1044600003600D4BC4608360FFF7ACF80B4B186022
:104470000B480C4BC460C0E900350B4B8360FFF761
:10448000A1F80A4B1860BDE838400DF029BF00BF05
:1044900080290024D87D050894290024902900242F
:1044A00050290024E57D05086429002460290024A2
:1044B000FDF744BE024B4FF0FF311868FFF79AB882
:1044C00090290024014B1868FFF7ACB8902900240C
:1044D00008B502F043FD0C4B0C4998684FF00053AF
:1044E000C21802F16042126843F8042B8B42F7D1E4
:1044F000054B4FF000529A6009F00EFF0AF0E6FDFE
:10450000BDE8084000F015B800ED00E0980200207A
:104510007047704708B500F043F8FFF7F9FFFFF761
:1045200099FFFFF7F6FF03F0DBFCBDE80840FFF75B
:10453000BFBFFEF7DDBA0000114C124B23614FF4F0
:10454000004363614423E3600F4BA3601823A3611E
:104550000E4B07B5224600210D482360FFF788FE69
:10456000034628B922460B4900900B4803F0C0FCD3
:10457000FEF7D6FA002309491A460093F5E700BF73
:1045800010B2002410320024B8290024FF7D050851
:1045900015450408047E05081D010180207E0508DC
:1045A0001FB5064B6C460FCB84E80F002046FFF783
:1045B00009F8034B186004B010BD00BF387E050831
:1045C0000832002473B506460C46154603F08AFCF3
:1045D00058B90634324628462ABF054B054953F8D8
:1045E00024100023009303F083FC02B070BD00BFD1
:1045F000FC7F0508507F050808B500F0F7F80000BB
:10460000002307B5421E00930023042A19D8DFE8CF
:1046100002F003080C10140001220C490C4803F0AE
:1046200067FC02220B490C48F9E703220B490C48AE
:10463000F5E704220B490C48F1E705220B490C4829
:10464000EDE702460B490C48E9E700BF487E050844
:1046500025010280697E0508260102808E7E0508FC
:1046600027010280C37E050828010280FE7E05081E
:104670002A0102803E7F0508000102800146014AAE
:10468000FFF7A0BF31010180014AFFF79BBF00BFC8
:1046900032010180014AFFF795BF00BF3701018059
:1046A000014AFFF78FBF00BF3301018011F1110FE5
:1046B00002D0024AFFF786BF704700BF3401018075
:1046C000014AFFF77FBF00BF3801018010B5FFF737
:1046D000E7FD034B1B6813B1BDE81040184710BD40
:1046E000FC290024024B1B6803B11847704700BF28
:1046F000FC290024024B987A003818BF012070472B
:104700007406002408B5FEF721FA0022064903F0DA
:10471000FDFCC31C04D98B220449054803F058F959
:10472000BDE80840FEF726BAF546040837800508BC
:1047300049800508B0F57A7F10B50C4604D03222C6
:1047400019491A4803F044F902F000FE0028184AFB
:1047500016DB00F16043F02103F5614383F8001399
:10476000916800F1100341F82340BFF34F8F926826
:1047700052F823309C420AD03F220B490D48E1E712
:1047800000F00F03F021043B13441976E8E70028FA
:1047900008DB0123420900F01F0003FA00F0064B7A
:1047A00043F82200002010BD3780050876800508F8
:1047B00000ED00E08380050800E100E008B503F0AB
:1047C0002DFCBDE8084002F0E4BE0000014B186873
:1047D00002F014BF382C0024014B186802F0D0BE40
:1047E000382C002408B502F0B1FD08BD024C08B514
:1047F00023689847FCE700BF1807002403680BB143
:1048000008461847704710B50446FDF739F92046A9
:1048100010BD08B5FDF710FA08BD0000044B0022DA
:10482000C3E901221A611A60024ADA60704700BFC8
:10483000002A0024FD47040810B50022034600F1B9
:10484000110403F8012B03F8012B9C42FBD1418298
:1048500010BD000042F60211024808B5FFF7ECFF58
:1048600008BD00BF142A002410B5044604F004FA61
:10487000204610BD10B5084C204604F0BDF90023B9
:104880002046064A84F8243023630549C4E90A33E4
:10489000BDE8104003F06CBD282A0024000000246D
:1048A00069480408F8B50546064655F8044B8CB926
:1048B0000D4F386818B14FF0FF31FEF79BFE34689A
:1048C00024B928462C4604F097F93560386808B1B9
:1048D000FEF7A8FEAC4204D08B220449044803F042
:1048E00077F82046F8BD00BF08320024D4800508C0
:1048F000E38005080368012200211B69184703684B
:1049000000221B691146184707B5019003F058F9BA
:104910000121019809F086FA03B05DF804EB03F079
:1049200065B907B5019003F04BF90021019809F032
:1049300079FA03B05DF804EB03F058B907B5CDE997
:10494000001003F03DF9DDE9001009F067FA03B04B
:104950005DF804EB03F04AB97047000070B500F150
:104960000C060446B0F95820B0F9561030460AF04B
:10497000F5F8D4E918530DB9DA070ED55A1094F8A2
:10498000681004EB6300DB0748BFA358B4F96A2042
:1049900048BF5D59B4F96C30A847216D30460AF024
:1049A00005F8224630460249BDE8704008F050BC88
:1049B000A54C040873B51E46C36D04460D462BB1C5
:1049C00040F235122B492C4803F002F82B49019292
:1049D000C0E9181303681B689847019A84F8685067
:1049E000A4F86A20A4F86C60042D0BD8DFE805F069
:1049F0001603111619004FF0FF33012104F10C00CA
:104A000008F01CFD236820465B6802B0BDE87040DA
:104A10001847134602214FF0FF32EFE7334629468D
:104A2000ECE70123013284F884300ED01C2003F01F
:104A3000F1FEB4F96A6005461C2200210EF050F91F
:104A40003146284601F0A9FF2567B4F96C300133DF
:104A5000D8D01C2003F0DEFEB4F96C6005461C22A1
:104A600000210EF03DF900223146284601F098FF62
:104A70006567C7E71F8105082E810508B549040849
:104A800010B50446FBF706FD2046FCF7F3FF204671
:104A900010BD70B506460D46044656F80C3B1B6823
:104AA00098473046294609F081FF2368204625654E
:104AB0005B68BDE8704018477FB505460446019322
:104AC00055F80C6BCDE902213668B04728460399AA
:104AD000DDE9013209F0CEFF236820465B6804B0AF
:104AE000BDE870401847000070B50546044655F80B
:104AF0000C3B1B689847284609F0F2FE94F8843076
:104B000005467BB1626F6AB10B4B0C481946D3F86E
:104B100094608642FBD1136855B9926813604FF4D4
:104B200040734B61236820465B689847284670BDF8
:104B3000D2681B04F2E700BF006402580003008043
:104B400038B50546044655F80C3B1B68984728467F
:104B500009F0D6FE94F88430054643B1236F00F087
:104B600001055A681B6812681A4218BF002523689D
:104B700020465B689847284638BD0C3008F016BCC4
:104B800010B50C460C3008F045FC204610BD000066
:104B90002DE9F04198461F4B0025044603600F465F
:104BA0001D4B294616468560436024220C300EF0CA
:104BB00097F804F13000FCF70AFE04F14000FCF71E
:104BC00006FE40F201136566A4F854304FF6FF73F9
:104BD000C4F88050A4F86A30A4F86C30A368C4F814
:104BE00050805A1013F0010F04EB63006368A4F8BF
:104BF0005670A4F8586084F8685084F88450C4E96A
:104C00001755C4E91E551CBFA258D35898472046D3
:104C1000BDE8F081508105085D49040803682DE96D
:104C2000F04104461B6815460F46984794F85430E7
:104C3000EE1C03B17DB194F855300BB1012D0AD0B3
:104C4000394604EB0610FCF7E1FF236820465B6859
:104C5000BDE8F041184702F0B3FF384604EB0616F2
:104C600004F10C08FCF7DFFF88B13046FCF7DBFFEE
:104C700008B903F07BFA39463046FCF7C7FF01223A
:104C80002946404608F0F0FA02F0B0FFDDE7304672
:104C9000FCF7C9FF08B103F07FFA3046FFF7F0FEDA
:104CA0000022EDE7033110B500EB01142046FCF7BC
:104CB000BAFF10B12046FFF7ACFD10BD036870B518
:104CC00004461B680D46984794F85430AB422DD0EB
:104CD00065B194F855304BB9A2686368511004EB84
:104CE0006200D20744BF6258D358984704F1300697
:104CF00002F066FF05B33046FCF795FF50B1304631
:104D0000FCF79AFF03F032FA0122002104F10C00B3
:104D100008F0AAFA02F06AFF84F8545035B994F802
:104D200055301BB904F10C0009F0C0FC2368204683
:104D30005B68BDE87040184704F10C002A4629461C
:104D400008F092FA3046FCF76EFF0028E2D003F03C
:104D500023FADFE7036870B504461B680D469847E1
:104D600094F85530AB422DD065B194F854304BB91E
:104D7000A2686368511004EB6200D20744BF625816
:104D8000D358984704F1400602F01AFF05B33046A5
:104D9000FCF749FF50B13046FCF74EFF03F0E6F94F
:104DA000012204F10C00114608F05EFA02F01EFF29
:104DB00084F8555035B994F854301BB904F10C00FF
:104DC00009F074FC236820465B68BDE87040184712
:104DD00004F10C002A46012108F046FA3046FCF79F
:104DE00022FF0028E2D003F0D7F9DFE71FB5184B08
:104DF0000446002103606846FCF7F0FC0022694687
:104E00002046FFF70BFF6846FBF749FB0021684689
:104E1000FCF7E4FC012269462046FFF7FFFE6846E6
:104E2000FBF73DFB94F8543013B994F855301BB19F
:104E300004F10C0009F03AFC04F14000FBF72FFBF1
:104E400004F13000FBF72BFB204604B010BD00BF7F
:104E50005081050810B50446FFF7C8FF8821204699
:104E600003F00CFD204610BD437D10B504461BB178
:104E7000037D0BB103F090F9204610BD13B5044635
:104E800001A802F0B1F8637D53B9237D0BB103F0A3
:104E90006DF9206902F041F80123C4E9000163754E
:104EA00001A802F0A9F802B010BD37B5044601A868
:104EB0000D4602F099F800230022C4E900236B7D1F
:104EC0004BB1286902F029F8D5E90032C01A61EB2C
:104ED0000201C4E9000101A802F08EF8204603B0E7
:104EE00030BD30B585B00D46044603A802F07CF80D
:104EF00029466846FFF7D9FF009B019AD5E90210C1
:104F00005B1840EB020203A8C4E9003202F074F817
:104F1000204605B030BD13B5044601A802F064F880
:104F2000206901F0FAFF00220023C4E90001C4E96E
:104F3000022301A802F060F802B010BDD0B5002332
:104F4000002600270446016102754375C0E9006729
:104F5000C0E90267FFF7DFFF2046D0BD10B5044669
:104F600001F0EEFF012201462046FFF7E7FF204651
:104F700010BD10B5044601F04FFD00220146204649
:104F8000FFF7DCFF204610BD03681B6818470000D0
:104F900010B5084B04460022084623600023A16197
:104FA0000549C4E902230023C4E9043301F044FFA6
:104FB000204610BD68810508894F040807B500F137
:104FC00008010090806901F075FF03B05DF804FBF3
:104FD00000F10801806901F085BF002070476FF083
:104FE0001C0070476FF01C0070476FF01500704791
:104FF0006FF01500704701207047012070470020B6
:1050000070470020704770B511F0010405468EB25C
:1050100004D0FFF769FD041E18BF0124F30605D56F
:105020002846FFF78DFD08B144F01004204670BDFE
:10503000A0F18800FFF7E7BF08B5FFF73FFE0020AB
:1050400008BDA0F18800FFF7F7BF08B5FFF782FEA3
:10505000002008BDA0F18800FFF7F7BF034B10B593
:1050600004460360FFF7C2FE204610BD74810508A8
:10507000A0F18800F2E700BF10B50446FFF7EEFF8D
:105080008C21204603F0FAFB204610BDA0F18800D9
:10509000F2E72DE9F04106460D461746CAB102F087
:1050A0008CFD80F0010313F0FF0403D03368304619
:1050B0001B68984705EB0708454505D015F8011B07
:1050C0003046FFF75DFDF7E71CB1336830465B689B
:1050D00098473846BDE8F081A0F18800FFF7D9BFB6
:1050E00038B504460D4662B103681B6898472046F0
:1050F000FFF743FD2870236820465B68984701202E
:1051000038BD1046FCE7A0F18800FFF7E9BF0000BA
:1051100010B50446FFF73CFD044B204603F108029E
:1051200044332260C4F8883010BD00BF6C8105088C
:1051300030B5056885B0044601932D68CDE902219C
:10514000A84720460399DDE90132FFF733FC2368C5
:1051500020465B6805B0BDE83040184710B50446EE
:10516000FBF798F92046FCF785FC204610BD70B58A
:1051700004460E4602F024FDA5695DB104F1080065
:10518000FFF7ECFF012384F8216084F8203000232E
:10519000E361A36102F02AFD2DB121462846BDE856
:1051A000704000F078B970BD08B103F02DBD02F079
:1051B00007BD08B103F046BD02F018BD2DE9F0416E
:1051C000044686B00E46174602F0FAFCA56902F0C6
:1051D0000DFD35B301AD0021284603F06FFD02F04F
:1051E000EFFCD4E9068323B139220F490F4802F0BE
:1051F000EFFBE56102F0FAFCB8F1000F0ED0394682
:10520000284603F063FD48B93046FFF7CDFF20463E
:105210000121FFF7ACFF3046FFF7CBFF284603F034
:1052200076FD06B0BDE8F0811582050821820508EB
:1052300038B50025054B0446456040F8083BFCF7AF
:10524000C6FA20462584C4E9065538BD48820508BB
:10525000074B10B503600446836923B12622054934
:10526000054802F0B5FB0830FBF719F9204610BDE0
:1052700048820508158205082F82050830B50446C6
:1052800085B002F09DFC04F1080568462946FFF749
:10529000BAFA2846FFF762FF0023E069A36108B16C
:1052A00003F032FD02F0A2FC6846FCF7BCFC10B132
:1052B0006846FFF7AEFA6846FBF7F1F805B030BD77
:1052C00000220160C0E90122012202737047704789
:1052D0000346007B30B1D3E90020136898428CBFAD
:1052E0000020012070470123D0F800C02DE9F043D1
:1052F00003FA01F11F4682EA030E1CF823500D4207
:1053000004D005F030053AB1102D07D10133112B2F
:10531000F3D14FF0FF300FE0002DF7D05C00D0F854
:105320000880023C42EA040607FA06F919EA080F67
:10533000ECD1202D02D03046BDE8F0834EEA0404C3
:1053400007FA04F414EA080FF5D0DFE770B50D464C
:10535000114604461E462A46FFF7C5FF002802DA1A
:105360000020207370BD42082168636801EB820150
:10537000CD8849791D44012306FB0151616003FA80
:1053800000F1A36842EAC0100B43C0B2A360E9E792
:1053900013460A460121FFF7D9BF13460A460021EA
:1053A000FFF7D4BF13B504460A4601910021FFF769
:1053B000EFFF019A0021204602B0BDE81040FFF740
:1053C000ECBF0022C0E900227047704700687047B8
:1053D00000230B60436813B9016041607047196096
:1053E000FBE703682BB11A6802B942600260002231
:1053F0001A601846704710B50468002223468B4295
:1054000003D083B11A461B68F9E70AB10B68136031
:105410008C4204BF0B68036043688B424FF000036B
:1054200008BF42600B6010BD10B50446FFF7C9FF0E
:10543000204610BD08B5FFF7C9FFB0FA80F040095B
:1054400008BD70B505462846FFF7C0FF044678B191
:1054500050F8043C061F9B683046984740B12846E8
:10546000FFF7BFFF54F8043C3046DB689847EAE793
:1054700070BD70B504460D46FFF7A8FF0646291D0E
:105480002046AC61FFF7A4FF26B92046BDE8704076
:10549000FFF7D7BF70BD70B50C460546FFF796FF06
:1054A000064604B1043421462846FFF7A4FFA6426D
:1054B00004D12846BDE87040FFF7C3BF70BD10B5EA
:1054C00004462046FFF782FF28B150F8043C043818
:1054D000DB689847F5E710BD10B50446FFF7EFFF0E
:1054E0002046FFF772FF204610BD704770470368E3
:1054F0009B6D184770B5002386B04FF4897490F8FF
:105500002013CDF8063005AE8DF80A300389ADF8CA
:1055100004400224ADF8103040F201234268ADF897
:10552000123040F203138DF8074001ACADF814308F
:1055300000F10A038DF80B101D4603922246083332
:1055400003CAB24243F8080C43F8041C1446F5D1D0
:10555000128828461A8006B070BD000000487047C7
:105560003085050800487047688505080048704781
:1055700034850508004870477A850508004870475B
:1055800060850508004870474A850508036810B51E
:1055900004465B6F9847D4F8EC0203681B6F98478A
:1055A000236820469B6FBDE81040184708B5D0F827
:1055B00034332BB940F2CD620249034802F008FAB5
:1055C00008BD00BF758205088382050810B5044632
:1055D00002F0F6FAD4F834330133C4F834332BB97B
:1055E0004FF4D7620249034802F0F2F910BD00BF40
:1055F000758205088382050838B5D0F8343304462F
:10560000012B10D10025D4E9C93000F0010203B903
:105610004AB1411004EB6000C4E9C9550AB16258AF
:10562000D3589847EFE7D4F834332BB940F2C66229
:105630000549064802F0CCF9013BC4F83433BDE813
:10564000384002F0D3BA00BF75820508838205088E
:10565000002307B51A4602490248009302F048FCAD
:105660008F8205080E011580002307B51A460249EE
:105670000248009302F03CFCB78205080401158043
:10568000036873B50446DB6F9847B4F8F8120B1241
:10569000022B25D0032B56D0012B04D123682046A2
:1056A0001B6B984708B9002018E0236820461B6B45
:1056B00098470678122EF6D1236820461B6B984730
:1056C0004578012DEFD123682046C4F804631B6B95
:1056D0009847C4F80003284684F8085302B070BD08
:1056E000C9B2236820465B6B019198470028DAD045
:1056F0002368204601995B6B984703780199092B31
:10570000D1D1236820465B6B984743780199022BDF
:10571000C9D1236820465B6B98472368857820466B
:105720005B6B01999847C3780199204645EA0325A8
:105730002368C4F804535B6B9847C4F80003012046
:1057400084F80803CAE7C9B20529ACD8DFE801F03C
:10575000030F19232D37236820469B6B9847037846
:10576000C4F8043323689B6B20469847E5E7236819
:105770002046DB6B98470378C4F804332368DB6B5F
:10578000F2E7236820461B6C98470378C4F804337B
:1057900023681B6CE8E7236820465B6C9847037816
:1057A000C4F8043323685B6CDEE7236820469B6CF7
:1057B00098470378C4F8043323689B6CD4E72368C4
:1057C0002046DB6C98470378C4F804332368DB6C0D
:1057D000CAE70B78DB0913700B78C3F341135370DE
:1057E0000B7803F01F0393704B78D370C8788B78D5
:1057F00043EA0023938048790B7943EA0023D3805E
:10580000C8798B7943EA002313817047036870B528
:1058100004465B6F0D46984794F80C33022B05D075
:1058200040F23D120849094802F0D2F8084B2046E0
:1058300084F81053C4F824330023C4F828332368B1
:10584000BDE870409B6F184775820508D682050831
:10585000135D040838B503680446DB6F984794F875
:10586000083313B10025284638BDD4F8EC0203688C
:105870005B6C9847D4F804239042F3D8D4F8001313
:10588000121A0144C4F80423C4F80013A2B9022375
:1058900094F80A5384F80C3345B1236804F53D713C
:1058A000204684F80A239B6E9847DCE701212046B6
:1058B000FFF7ACFF0125D6E7D4F8EC02D4F820437B
:1058C0000368A2421B6C28BF22469847F2E70000FB
:1058D000036813B50446DB6F984794F81C33012B1B
:1058E00006D800230F491A4600930F4802F000FB28
:1058F00094F80C3323B100230C491A460093F4E7C3
:1059000094F80B33032B0BD02046FFF7A3FF38B9D5
:10591000D4F8EC020368DB6C02B0BDE81040184715
:1059200002B010BD8F8205080E01158001830508A5
:1059300038B503680446DB6F984794F80833012BA9
:105940003BD1D4F8045335B994F809330BB9012588
:105950002CE084F80953D4F82023D4F8EC029542C3
:10596000D4F80013036828BF15469B6C2A46984755
:10597000D4F80033D4F804232B44551BC4F8003367
:10598000C4F80453002DE2D194F80923002ADED193
:10599000022394F80A5384F80C334DB1236804F5BC
:1059A0003D71204684F80A239B6E9847284638BDEF
:1059B00001212046FFF72AFFC9E70025F6E7036823
:1059C00010B50446DB6F984794F81C33012B01D8BF
:1059D000FFF73EFE94F80B33032B0AD02046FFF767
:1059E000A7FF30B9D4F8EC020368BDE81040DB6CC7
:1059F000184710BD036870B504465B6F0D469847A5
:105A000094F80C33032B05D04FF4C37208490948AE
:105A100001F0DEFF084B204684F81053C4F824330D
:105A20000023C4F828332368BDE870409B6F1847F3
:105A3000758205084B8305082B660408036810B5BA
:105A40000446DB6F9847012004F21D33C4F80403B9
:105A5000C4F8003384F8080310BD036810B5044689
:105A6000DB6F984794F81C33042B05BFB4F82E3332
:105A700001200020A4F8FA3201BF04F54C73C4F8E9
:105A80000403C4F8003384F8080310BD036810B59C
:105A9000DB6F044698470423204694F8F82284F8E4
:105AA0000C332368B4F8FA121B6F9847012010BD1D
:105AB000036870B504465B6F0D46984794F80C3345
:105AC000042B05D04FF4EB720849094801F080FF20
:105AD000084B204684F81053C4F824330023C4F83C
